{
  "contractName": "AssymetricSensorOracle",
  "abi": [
    {
      "inputs": [
        {
          "internalType": "address",
          "name": "_owner",
          "type": "address"
        }
      ],
      "stateMutability": "nonpayable",
      "type": "constructor"
    },
    {
      "anonymous": false,
      "inputs": [
        {
          "indexed": false,
          "internalType": "address",
          "name": "oracleAddress",
          "type": "address"
        }
      ],
      "name": "AddOracleEvent",
      "type": "event"
    },
    {
      "anonymous": false,
      "inputs": [
        {
          "indexed": false,
          "internalType": "address",
          "name": "callerAddress",
          "type": "address"
        },
        {
          "indexed": false,
          "internalType": "uint256",
          "name": "id",
          "type": "uint256"
        }
      ],
      "name": "GetLatestSensorValueEvent",
      "type": "event"
    },
    {
      "anonymous": false,
      "inputs": [
        {
          "indexed": false,
          "internalType": "address",
          "name": "oracleAddress",
          "type": "address"
        }
      ],
      "name": "RemoveOracleEvent",
      "type": "event"
    },
    {
      "anonymous": false,
      "inputs": [
        {
          "indexed": false,
          "internalType": "uint256",
          "name": "sensorValue",
          "type": "uint256"
        },
        {
          "indexed": false,
          "internalType": "address",
          "name": "callerAddress",
          "type": "address"
        }
      ],
      "name": "SetLatestSensorValueEvent",
      "type": "event"
    },
    {
      "anonymous": false,
      "inputs": [
        {
          "indexed": false,
          "internalType": "uint256",
          "name": "threshold",
          "type": "uint256"
        }
      ],
      "name": "SetThresholdEvent",
      "type": "event"
    },
    {
      "inputs": [
        {
          "internalType": "uint256",
          "name": "",
          "type": "uint256"
        },
        {
          "internalType": "uint256",
          "name": "",
          "type": "uint256"
        }
      ],
      "name": "requestIdToResponse",
      "outputs": [
        {
          "internalType": "address",
          "name": "oracleAddress",
          "type": "address"
        },
        {
          "internalType": "address",
          "name": "callerAddress",
          "type": "address"
        },
        {
          "internalType": "uint256",
          "name": "sensorValue",
          "type": "uint256"
        }
      ],
      "stateMutability": "view",
      "type": "function",
      "constant": true
    },
    {
      "inputs": [
        {
          "internalType": "address",
          "name": "_oracle",
          "type": "address"
        }
      ],
      "name": "addOracle",
      "outputs": [],
      "stateMutability": "nonpayable",
      "type": "function"
    },
    {
      "inputs": [
        {
          "internalType": "address",
          "name": "_oracle",
          "type": "address"
        }
      ],
      "name": "removeOracle",
      "outputs": [],
      "stateMutability": "nonpayable",
      "type": "function"
    },
    {
      "inputs": [
        {
          "internalType": "uint256",
          "name": "_threshold",
          "type": "uint256"
        }
      ],
      "name": "setThreshold",
      "outputs": [],
      "stateMutability": "nonpayable",
      "type": "function"
    },
    {
      "inputs": [],
      "name": "getLatestSensorValue",
      "outputs": [
        {
          "internalType": "uint256",
          "name": "",
          "type": "uint256"
        }
      ],
      "stateMutability": "nonpayable",
      "type": "function"
    },
    {
      "inputs": [
        {
          "internalType": "uint256",
          "name": "_sensorValue",
          "type": "uint256"
        },
        {
          "internalType": "address",
          "name": "_callerAddress",
          "type": "address"
        },
        {
          "internalType": "uint256",
          "name": "_id",
          "type": "uint256"
        }
      ],
      "name": "setLatestSensorValue",
      "outputs": [],
      "stateMutability": "nonpayable",
      "type": "function"
    }
  ],
  "bytecode": "0x608060405260006002556103e86003556000600455600060055534801561002557600080fd5b50604051610e03380380610e038339818101604052602081101561004857600080fd5b810190808051906020019092919050505061007181600061007760201b61099f1790919060201c565b506101bb565b600073ffffffffffffffffffffffffffffffffffffffff168173ffffffffffffffffffffffffffffffffffffffff1614156100b157600080fd5b6100c1828261012960201b60201c565b156100cb57600080fd5b60018260000160008373ffffffffffffffffffffffffffffffffffffffff1673ffffffffffffffffffffffffffffffffffffffff16815260200190815260200160002060006101000a81548160ff0219169083151502179055505050565b60008073ffffffffffffffffffffffffffffffffffffffff168273ffffffffffffffffffffffffffffffffffffffff16141561016457600080fd5b8260000160008373ffffffffffffffffffffffffffffffffffffffff1673ffffffffffffffffffffffffffffffffffffffff16815260200190815260200160002060009054906101000a900460ff16905092915050565b610c39806101ca6000396000f3fe608060405234801561001057600080fd5b50600436106100625760003560e01c80633b6f1566146100675780638bbc085a14610085578063960bfe04146101375780639c78f76014610165578063df5dd1a5146101bd578063fdc85fc414610201575b600080fd5b61006f610245565b6040518082815260200191505060405180910390f35b6100bb6004803603604081101561009b57600080fd5b810190808035906020019092919080359060200190929190505050610371565b604051808473ffffffffffffffffffffffffffffffffffffffff1673ffffffffffffffffffffffffffffffffffffffff1681526020018373ffffffffffffffffffffffffffffffffffffffff1673ffffffffffffffffffffffffffffffffffffffff168152602001828152602001935050505060405180910390f35b6101636004803603602081101561014d57600080fd5b81019080803590602001909291905050506103f5565b005b6101bb6004803603606081101561017b57600080fd5b8101908080359060200190929190803573ffffffffffffffffffffffffffffffffffffffff169060200190929190803590602001909291905050506103ff565b005b6101ff600480360360208110156101d357600080fd5b81019080803573ffffffffffffffffffffffffffffffffffffffff1690602001909291905050506107ad565b005b6102436004803603602081101561021757600080fd5b81019080803573ffffffffffffffffffffffffffffffffffffffff16906020019092919050505061085d565b005b600060026000815480929190600101919050555060006003544233600254604051602001808481526020018373ffffffffffffffffffffffffffffffffffffffff1673ffffffffffffffffffffffffffffffffffffffff1660601b815260140182815260200193505050506040516020818303038152906040528051906020012060001c816102d057fe5b06905060016006600083815260200190815260200160002060006101000a81548160ff0219169083151502179055507fe3acea5abf802b4b2c656b94b0827dff1b52a9f388b65cfb0628c918a81d65763382604051808373ffffffffffffffffffffffffffffffffffffffff1673ffffffffffffffffffffffffffffffffffffffff1681526020018281526020019250505060405180910390a18091505090565b6007602052816000526040600020818154811061038a57fe5b9060005260206000209060030201600091509150508060000160009054906101000a900473ffffffffffffffffffffffffffffffffffffffff16908060010160009054906101000a900473ffffffffffffffffffffffffffffffffffffffff16908060020154905083565b8060058190555050565b61041333600161090d90919063ffffffff16565b610485576040517f08c379a000000000000000000000000000000000000000000000000000000000815260040180806020018281038252600e8152602001807f4e6f7420616e206f7261636c652100000000000000000000000000000000000081525060200191505060405180910390fd5b6006600082815260200190815260200160002060009054906101000a900460ff166104fb576040517f08c379a0000000000000000000000000000000000000000000000000000000008152600401808060200182810382526027815260200180610bdd6027913960400191505060405180910390fd5b610503610af6565b60405180606001604052803373ffffffffffffffffffffffffffffffffffffffff1681526020018473ffffffffffffffffffffffffffffffffffffffff1681526020018581525090506007600083815260200190815260200160002081908060018154018082558091505060019003906000526020600020906003020160009091909190915060008201518160000160006101000a81548173ffffffffffffffffffffffffffffffffffffffff021916908373ffffffffffffffffffffffffffffffffffffffff16021790555060208201518160010160006101000a81548173ffffffffffffffffffffffffffffffffffffffff021916908373ffffffffffffffffffffffffffffffffffffffff1602179055506040820151816002015550506000600760008481526020019081526020016000208054905090506005548114156107a657600080905060008090505b60076000868152602001908152602001600020805490508110156106e85760076000868152602001908152602001600020818154811061068f57fe5b9060005260206000209060030201600201548210156106db576007600086815260200190815260200160002081815481106106c657fe5b90600052602060002090600302016002015491505b8080600101915050610653565b506006600085815260200190815260200160002060006101000a81549060ff021916905560076000858152602001908152602001600020600061072b9190610b43565b60008590508073ffffffffffffffffffffffffffffffffffffffff1663b5d73ba483876040518363ffffffff1660e01b81526004018083815260200182815260200192505050600060405180830381600087803b15801561078b57600080fd5b505af115801561079f573d6000803e3d6000fd5b5050505050505b5050505050565b6107c181600161090d90919063ffffffff16565b15610834576040517f08c379a00000000000000000000000000000000000000000000000000000000081526004018080602001828103825260128152602001807f416c726561647920616e206f7261636c6521000000000000000000000000000081525060200191505060405180910390fd5b61084881600161099f90919063ffffffff16565b60046000815480929190600101919050555050565b61087181600161090d90919063ffffffff16565b6108e3576040517f08c379a000000000000000000000000000000000000000000000000000000000815260040180806020018281038252600e8152602001807f4e6f7420616e206f7261636c652100000000000000000000000000000000000081525060200191505060405180910390fd5b6108f7816001610a4b90919063ffffffff16565b6004600081548092919060019003919050555050565b60008073ffffffffffffffffffffffffffffffffffffffff168273ffffffffffffffffffffffffffffffffffffffff16141561094857600080fd5b8260000160008373ffffffffffffffffffffffffffffffffffffffff1673ffffffffffffffffffffffffffffffffffffffff16815260200190815260200160002060009054906101000a900460ff16905092915050565b600073ffffffffffffffffffffffffffffffffffffffff168173ffffffffffffffffffffffffffffffffffffffff1614156109d957600080fd5b6109e3828261090d565b156109ed57600080fd5b60018260000160008373ffffffffffffffffffffffffffffffffffffffff1673ffffffffffffffffffffffffffffffffffffffff16815260200190815260200160002060006101000a81548160ff0219169083151502179055505050565b600073ffffffffffffffffffffffffffffffffffffffff168173ffffffffffffffffffffffffffffffffffffffff161415610a8557600080fd5b610a8f828261090d565b610a9857600080fd5b60008260000160008373ffffffffffffffffffffffffffffffffffffffff1673ffffffffffffffffffffffffffffffffffffffff16815260200190815260200160002060006101000a81548160ff0219169083151502179055505050565b6040518060600160405280600073ffffffffffffffffffffffffffffffffffffffff168152602001600073ffffffffffffffffffffffffffffffffffffffff168152602001600081525090565b5080546000825560030290600052602060002090810190610b649190610b67565b50565b610bd991905b80821115610bd557600080820160006101000a81549073ffffffffffffffffffffffffffffffffffffffff02191690556001820160006101000a81549073ffffffffffffffffffffffffffffffffffffffff0219169055600282016000905550600301610b6d565b5090565b9056fe546869732072657175657374206973206e6f7420696e206d792070656e64696e67206c6973742ea2646970667358221220d204ef6898c5bb73ad0e731239939f9dc812b001c7403287de39c50a5bf7935064736f6c63430006030033",
  "source": "pragma solidity 0.6.3;\r\nimport \"./Roles.sol\";\r\nimport \"./SafeMath.sol\";\r\nimport \"./CallerContractInterface.sol\";\r\nimport \"./CallerContract.sol\";\r\nimport \"./SensorValueOracleInterface.sol\";\r\n\r\ncontract AssymetricSensorOracle is SensorValueOracleInterface {\r\n    using Roles for Roles.Role;\r\n    Roles.Role private owners;\r\n    Roles.Role private oracles;\r\n    using SafeMath for uint256;\r\n    uint256 private randNonce = 0;\r\n    uint256 private modulus = 1000;\r\n    uint256 private numOracles = 0;\r\n    uint256 private THRESHOLD = 0;\r\n    mapping(uint256 => bool) pendingRequests;\r\n    struct Response {\r\n        address oracleAddress;\r\n        address callerAddress;\r\n        uint256 sensorValue;\r\n    }\r\n    mapping(uint256 => Response[]) public requestIdToResponse;\r\n    event GetLatestSensorValueEvent(address callerAddress, uint256 id);\r\n    event SetLatestSensorValueEvent(uint256 sensorValue, address callerAddress);\r\n    event AddOracleEvent(address oracleAddress);\r\n    event RemoveOracleEvent(address oracleAddress);\r\n    event SetThresholdEvent(uint256 threshold);\r\n\r\n    constructor(address _owner) public {\r\n        owners.add(_owner);\r\n    }\r\n\r\n    function addOracle(address _oracle) public {\r\n        //require(owners.has(msg.sender), \"Not an owner!\");\r\n        require(!oracles.has(_oracle), \"Already an oracle!\");\r\n        oracles.add(_oracle);\r\n        numOracles++;\r\n        //emit AddOracleEvent(_oracle);\r\n    }\r\n\r\n    function removeOracle(address _oracle) public {\r\n        //require(owners.has(msg.sender), \"Not an owner!\");\r\n        require(oracles.has(_oracle), \"Not an oracle!\");\r\n        //require(numOracles > 1, \"Do not remove the last oracle!\");\r\n        oracles.remove(_oracle);\r\n        numOracles--;\r\n        //    emit RemoveOracleEvent(_oracle);\r\n    }\r\n\r\n    function setThreshold(uint256 _threshold) public {\r\n        //require(owners.has(msg.sender), \"Not an owner!\");\r\n        THRESHOLD = _threshold;\r\n        //    emit SetThresholdEvent(THRESHOLD);\r\n    }\r\n\r\n    function getLatestSensorValue() public override returns (uint256) {  \r\n        randNonce++;\r\n        uint256 id = uint256(\r\n            keccak256(abi.encodePacked(now, msg.sender, randNonce))\r\n        ) % modulus;\r\n        pendingRequests[id] = true;\r\n        emit GetLatestSensorValueEvent(msg.sender, id);\r\n        return id;\r\n    }\r\n\r\n    function setLatestSensorValue(\r\n        uint256 _sensorValue,\r\n        address _callerAddress,\r\n        uint256 _id\r\n    ) public {\r\n        require(oracles.has(msg.sender), \"Not an oracle!\");\r\n        require(\r\n            pendingRequests[_id],\r\n            \"This request is not in my pending list.\"\r\n        );\r\n        Response memory resp;\r\n        resp = Response(msg.sender, _callerAddress, _sensorValue);\r\n        requestIdToResponse[_id].push(resp);\r\n        uint256 numResponses = requestIdToResponse[_id].length;\r\n        if (numResponses == THRESHOLD) {\r\n            uint256 computedSensorValue = 0;\r\n            // Maximum\r\n            for (uint256 f = 0; f < requestIdToResponse[_id].length; f++) {\r\n                if (computedSensorValue < requestIdToResponse[_id][f].sensorValue) {\r\n                    computedSensorValue = requestIdToResponse[_id][f].sensorValue;\r\n                }\r\n            }\r\n            delete pendingRequests[_id];\r\n            delete requestIdToResponse[_id];\r\n            CallerContractInterface callerContractInstance;\r\n            callerContractInstance = CallerContractInterface(_callerAddress);\r\n            callerContractInstance.callback(computedSensorValue, _id);\r\n            //emit SetLatestSensorValueEvent(computedSensorValue, _callerAddress);\r\n        }\r\n    }\r\n\r\n\r\n}\r\n",
  "sourcePath": "/home/rsx02/hyperledger-besu/2TestCryptoZombies/contracts/AssymetricSensorOracle.sol",
  "compiler": {
    "name": "solc",
    "version": "0.6.3+commit.8dda9521.Emscripten.clang"
  },
  "schemaVersion": "3.4.1",
  "updatedAt": "2021-06-17T05:55:18.936Z",
  "networkType": "ethereum",
  "devdoc": {
    "methods": {}
  },
  "userdoc": {
    "methods": {}
  }
}