{
  "contractName": "AsymmetricSensorOracle",
  "abi": [
    {
      "inputs": [
        {
          "internalType": "address",
          "name": "_owner",
          "type": "address"
        }
      ],
      "stateMutability": "nonpayable",
      "type": "constructor"
    },
    {
      "anonymous": false,
      "inputs": [
        {
          "indexed": false,
          "internalType": "address",
          "name": "oracleAddress",
          "type": "address"
        }
      ],
      "name": "AddOracleEvent",
      "type": "event"
    },
    {
      "anonymous": false,
      "inputs": [
        {
          "indexed": false,
          "internalType": "address",
          "name": "callerAddress",
          "type": "address"
        },
        {
          "indexed": false,
          "internalType": "uint256",
          "name": "id",
          "type": "uint256"
        }
      ],
      "name": "GetLatestSensorValueEvent",
      "type": "event"
    },
    {
      "anonymous": false,
      "inputs": [
        {
          "indexed": false,
          "internalType": "address",
          "name": "oracleAddress",
          "type": "address"
        },
        {
          "indexed": false,
          "internalType": "string",
          "name": "reason",
          "type": "string"
        }
      ],
      "name": "RemoveOracleEvent",
      "type": "event"
    },
    {
      "anonymous": false,
      "inputs": [
        {
          "indexed": false,
          "internalType": "int256",
          "name": "sensorValue",
          "type": "int256"
        },
        {
          "indexed": false,
          "internalType": "address",
          "name": "callerAddress",
          "type": "address"
        }
      ],
      "name": "SetLatestSensorValueEvent",
      "type": "event"
    },
    {
      "anonymous": false,
      "inputs": [
        {
          "indexed": false,
          "internalType": "uint256",
          "name": "threshold",
          "type": "uint256"
        }
      ],
      "name": "SetThresholdEvent",
      "type": "event"
    },
    {
      "anonymous": false,
      "inputs": [
        {
          "indexed": false,
          "internalType": "address",
          "name": "oracleAddress",
          "type": "address"
        },
        {
          "indexed": false,
          "internalType": "int256",
          "name": "computedSensorValue",
          "type": "int256"
        },
        {
          "indexed": false,
          "internalType": "int256",
          "name": "sensorValue",
          "type": "int256"
        }
      ],
      "name": "VariationSurpassedEvent",
      "type": "event"
    },
    {
      "inputs": [
        {
          "internalType": "uint256",
          "name": "",
          "type": "uint256"
        },
        {
          "internalType": "uint256",
          "name": "",
          "type": "uint256"
        }
      ],
      "name": "requestIdToResponse",
      "outputs": [
        {
          "internalType": "address",
          "name": "oracleAddress",
          "type": "address"
        },
        {
          "internalType": "address",
          "name": "callerAddress",
          "type": "address"
        },
        {
          "internalType": "int256",
          "name": "sensorValue",
          "type": "int256"
        }
      ],
      "stateMutability": "view",
      "type": "function",
      "constant": true
    },
    {
      "inputs": [
        {
          "internalType": "address",
          "name": "_oracle",
          "type": "address"
        }
      ],
      "name": "addOracle",
      "outputs": [],
      "stateMutability": "nonpayable",
      "type": "function"
    },
    {
      "inputs": [],
      "name": "autoDestructOracle",
      "outputs": [],
      "stateMutability": "nonpayable",
      "type": "function"
    },
    {
      "inputs": [
        {
          "internalType": "uint256",
          "name": "_threshold",
          "type": "uint256"
        }
      ],
      "name": "setThreshold",
      "outputs": [],
      "stateMutability": "nonpayable",
      "type": "function"
    },
    {
      "inputs": [
        {
          "internalType": "uint256",
          "name": "_RepThreshold",
          "type": "uint256"
        },
        {
          "internalType": "int256",
          "name": "_MaxVariation",
          "type": "int256"
        }
      ],
      "name": "setReputationParameters",
      "outputs": [],
      "stateMutability": "nonpayable",
      "type": "function"
    },
    {
      "inputs": [],
      "name": "getLatestSensorValue",
      "outputs": [
        {
          "internalType": "uint256",
          "name": "",
          "type": "uint256"
        }
      ],
      "stateMutability": "nonpayable",
      "type": "function"
    },
    {
      "inputs": [
        {
          "internalType": "int256",
          "name": "_sensorValue",
          "type": "int256"
        },
        {
          "internalType": "address",
          "name": "_callerAddress",
          "type": "address"
        },
        {
          "internalType": "uint256",
          "name": "_id",
          "type": "uint256"
        },
        {
          "internalType": "int256[]",
          "name": "_relativeSensorValues",
          "type": "int256[]"
        }
      ],
      "name": "setLatestSensorValue",
      "outputs": [],
      "stateMutability": "nonpayable",
      "type": "function"
    }
  ],
  "bytecode": "0x608060405260006002556103e8600355600060045560006005556000600655600060085534801561002f57600080fd5b5060405162001705380380620017058339818101604052602081101561005457600080fd5b810190808051906020019092919050505061007d8160016100da60201b6111a51790919060201c565b6000600760008373ffffffffffffffffffffffffffffffffffffffff1673ffffffffffffffffffffffffffffffffffffffff168152602001908152602001600020819055506004600081548092919060010191905055505061021e565b600073ffffffffffffffffffffffffffffffffffffffff168173ffffffffffffffffffffffffffffffffffffffff16141561011457600080fd5b610124828261018c60201b60201c565b1561012e57600080fd5b60018260000160008373ffffffffffffffffffffffffffffffffffffffff1673ffffffffffffffffffffffffffffffffffffffff16815260200190815260200160002060006101000a81548160ff0219169083151502179055505050565b60008073ffffffffffffffffffffffffffffffffffffffff168273ffffffffffffffffffffffffffffffffffffffff1614156101c757600080fd5b8260000160008373ffffffffffffffffffffffffffffffffffffffff1673ffffffffffffffffffffffffffffffffffffffff16815260200190815260200160002060009054906101000a900460ff16905092915050565b6114d7806200022e6000396000f3fe608060405234801561001057600080fd5b506004361061007d5760003560e01c8063960bfe041161005b578063960bfe041461023e5780639f9ce7d51461026c578063d12bcffb146102a4578063df5dd1a5146102ae5761007d565b80633b6f1566146100825780635561dbbd146100a05780638bbc085a1461018c575b600080fd5b61008a6102f2565b6040518082815260200191505060405180910390f35b61018a600480360360808110156100b657600080fd5b8101908080359060200190929190803573ffffffffffffffffffffffffffffffffffffffff169060200190929190803590602001909291908035906020019064010000000081111561010757600080fd5b82018360208201111561011957600080fd5b8035906020019184602083028401116401000000008311171561013b57600080fd5b919080806020026020016040519081016040528093929190818152602001838360200280828437600081840152601f19601f82011690508083019250505050505050919291929050505061041e565b005b6101c2600480360360408110156101a257600080fd5b8101908080359060200190929190803590602001909291905050506109b7565b604051808473ffffffffffffffffffffffffffffffffffffffff1673ffffffffffffffffffffffffffffffffffffffff1681526020018373ffffffffffffffffffffffffffffffffffffffff1673ffffffffffffffffffffffffffffffffffffffff168152602001828152602001935050505060405180910390f35b61026a6004803603602081101561025457600080fd5b8101908080359060200190929190505050610a3b565b005b6102a26004803603604081101561028257600080fd5b810190808035906020019092919080359060200190929190505050610aae565b005b6102ac610b29565b005b6102f0600480360360208110156102c457600080fd5b81019080803573ffffffffffffffffffffffffffffffffffffffff169060200190929190505050610b4d565b005b600060026000815480929190600101919050555060006003544233600254604051602001808481526020018373ffffffffffffffffffffffffffffffffffffffff1673ffffffffffffffffffffffffffffffffffffffff1660601b815260140182815260200193505050506040516020818303038152906040528051906020012060001c8161037d57fe5b06905060016009600083815260200190815260200160002060006101000a81548160ff0219169083151502179055507fe3acea5abf802b4b2c656b94b0827dff1b52a9f388b65cfb0628c918a81d65763382604051808373ffffffffffffffffffffffffffffffffffffffff1673ffffffffffffffffffffffffffffffffffffffff1681526020018281526020019250505060405180910390a18091505090565b610432336001610cab90919063ffffffff16565b6104a4576040517f08c379a000000000000000000000000000000000000000000000000000000000815260040180806020018281038252600e8152602001807f4e6f7420616e206f7261636c652100000000000000000000000000000000000081525060200191505060405180910390fd5b6009600083815260200190815260200160002060009054906101000a900460ff1661051a576040517f08c379a000000000000000000000000000000000000000000000000000000000815260040180806020018281038252602781526020018061147b6027913960400191505060405180910390fd5b600080905060008090505b6004548110156105545782818151811061053b57fe5b6020026020010151820191508080600101915050610525565b50848251828161056057fe5b0501905061056c6112fc565b60405180606001604052803373ffffffffffffffffffffffffffffffffffffffff1681526020018673ffffffffffffffffffffffffffffffffffffffff168152602001838152509050600a600085815260200190815260200160002081908060018154018082558091505060019003906000526020600020906003020160009091909190915060008201518160000160006101000a81548173ffffffffffffffffffffffffffffffffffffffff021916908373ffffffffffffffffffffffffffffffffffffffff16021790555060208201518160010160006101000a81548173ffffffffffffffffffffffffffffffffffffffff021916908373ffffffffffffffffffffffffffffffffffffffff1602179055506040820151816002015550506000600a60008681526020019081526020016000208054905090506005548114156109ae576000600a60008781526020019081526020016000206000815481106106d257fe5b906000526020600020906003020160020154905060008090505b600a60008881526020019081526020016000208054905081101561075f576000600b6000600a60008b8152602001908152602001600020848154811061072e57fe5b90600052602060002090600302016002015481526020019081526020016000208190555080806001019150506106ec565b5060008090505b600a6000888152602001908152602001600020805490508110156108ad576001600b6000600a60008b815260200190815260200160002084815481106107a857fe5b90600052602060002090600302016002015481526020019081526020016000205401600b6000600a60008b815260200190815260200160002084815481106107ec57fe5b906000526020600020906003020160020154815260200190815260200160002081905550600b600083815260200190815260200160002054600b6000600a60008b8152602001908152602001600020848154811061084657fe5b90600052602060002090600302016002015481526020019081526020016000205413156108a057600a6000888152602001908152602001600020818154811061088b57fe5b90600052602060002090600302016002015491505b8080600101915050610766565b506108b88682610d3d565b6009600087815260200190815260200160002060006101000a81549060ff0219169055600a600087815260200190815260200160002060006108fa9190611349565b60008790508073ffffffffffffffffffffffffffffffffffffffff16637e87b5e383896040518363ffffffff1660e01b81526004018083815260200182815260200180602001828103825260088152602001807f706f736974696f6e0000000000000000000000000000000000000000000000008152506020019350505050600060405180830381600087803b15801561099357600080fd5b505af11580156109a7573d6000803e3d6000fd5b5050505050505b50505050505050565b600a60205281600052604060002081815481106109d057fe5b9060005260206000209060030201600091509150508060000160009054906101000a900473ffffffffffffffffffffffffffffffffffffffff16908060010160009054906101000a900473ffffffffffffffffffffffffffffffffffffffff16908060020154905083565b610a4f336001610cab90919063ffffffff16565b610aa4576040517f08c379a000000000000000000000000000000000000000000000000000000000815260040180806020018281038252602581526020018061140e6025913960400191505060405180910390fd5b8060058190555050565b610ac2336001610cab90919063ffffffff16565b610b17576040517f08c379a000000000000000000000000000000000000000000000000000000000815260040180806020018281038252602581526020018061140e6025913960400191505060405180910390fd5b81600681905550806008819055505050565b610b4b336040518060600160405280602b81526020016113e3602b9139610fe1565b565b610b61336001610cab90919063ffffffff16565b610bb6576040517f08c379a00000000000000000000000000000000000000000000000000000000081526004018080602001828103825260228152602001806114336022913960400191505060405180910390fd5b610bca816001610cab90919063ffffffff16565b15610c3d576040517f08c379a00000000000000000000000000000000000000000000000000000000081526004018080602001828103825260128152602001807f416c726561647920616e206f7261636c6521000000000000000000000000000081525060200191505060405180910390fd5b610c518160016111a590919063ffffffff16565b6000600760008373ffffffffffffffffffffffffffffffffffffffff1673ffffffffffffffffffffffffffffffffffffffff1681526020019081526020016000208190555060046000815480929190600101919050555050565b60008073ffffffffffffffffffffffffffffffffffffffff168273ffffffffffffffffffffffffffffffffffffffff161415610ce657600080fd5b8260000160008373ffffffffffffffffffffffffffffffffffffffff1673ffffffffffffffffffffffffffffffffffffffff16815260200190815260200160002060009054906101000a900460ff16905092915050565b60006008548201905060006008548303905060008090505b600a600086815260200190815260200160002080549050811015610fda576000600a60008781526020019081526020016000208281548110610d9357fe5b906000526020600020906003020160000160009054906101000a900473ffffffffffffffffffffffffffffffffffffffff16905083600a60008881526020019081526020016000208381548110610de657fe5b9060005260206000209060030201600201541380610e32575082600a60008881526020019081526020016000208381548110610e1e57fe5b906000526020600020906003020160020154125b15610f60576001600760008373ffffffffffffffffffffffffffffffffffffffff1673ffffffffffffffffffffffffffffffffffffffff1681526020019081526020016000205401600760008373ffffffffffffffffffffffffffffffffffffffff1673ffffffffffffffffffffffffffffffffffffffff168152602001908152602001600020819055507fb6f3cc50f07b24f7fd9987dd6228e78d7b9d00ee34ba9c2518eed97e36afb1ff8186600a60008a81526020019081526020016000208581548110610efe57fe5b906000526020600020906003020160020154604051808473ffffffffffffffffffffffffffffffffffffffff1673ffffffffffffffffffffffffffffffffffffffff168152602001838152602001828152602001935050505060405180910390a15b600654600760008373ffffffffffffffffffffffffffffffffffffffff1673ffffffffffffffffffffffffffffffffffffffff168152602001908152602001600020541115610fcc57610fcb8160405180606001604052806026815260200161145560269139610fe1565b5b508080600101915050610d55565b5050505050565b610ff5826001610cab90919063ffffffff16565b611067576040517f08c379a000000000000000000000000000000000000000000000000000000000815260040180806020018281038252600e8152602001807f4e6f7420616e206f7261636c652100000000000000000000000000000000000081525060200191505060405180910390fd5b61107b82600161125190919063ffffffff16565b600760008373ffffffffffffffffffffffffffffffffffffffff1673ffffffffffffffffffffffffffffffffffffffff16815260200190815260200160002060009055600460008154809291906001900391905055507fe245a3c31307c058d22017c6a88c565a2db0132fc4bb9528c70fdff4008f594b8282604051808373ffffffffffffffffffffffffffffffffffffffff1673ffffffffffffffffffffffffffffffffffffffff16815260200180602001828103825283818151815260200191508051906020019080838360005b8381101561116657808201518184015260208101905061114b565b50505050905090810190601f1680156111935780820380516001836020036101000a031916815260200191505b50935050505060405180910390a15050565b600073ffffffffffffffffffffffffffffffffffffffff168173ffffffffffffffffffffffffffffffffffffffff1614156111df57600080fd5b6111e98282610cab565b156111f357600080fd5b60018260000160008373ffffffffffffffffffffffffffffffffffffffff1673ffffffffffffffffffffffffffffffffffffffff16815260200190815260200160002060006101000a81548160ff0219169083151502179055505050565b600073ffffffffffffffffffffffffffffffffffffffff168173ffffffffffffffffffffffffffffffffffffffff16141561128b57600080fd5b6112958282610cab565b61129e57600080fd5b60008260000160008373ffffffffffffffffffffffffffffffffffffffff1673ffffffffffffffffffffffffffffffffffffffff16815260200190815260200160002060006101000a81548160ff0219169083151502179055505050565b6040518060600160405280600073ffffffffffffffffffffffffffffffffffffffff168152602001600073ffffffffffffffffffffffffffffffffffffffff168152602001600081525090565b508054600082556003029060005260206000209081019061136a919061136d565b50565b6113df91905b808211156113db57600080820160006101000a81549073ffffffffffffffffffffffffffffffffffffffff02191690556001820160006101000a81549073ffffffffffffffffffffffffffffffffffffffff0219169055600282016000905550600301611373565b5090565b9056fe53656e736f722069732073656c662d72656d6f76696e672066726f6d207468652073756273797374656d214e6f7420616e206f7261636c652c2063616e6e6f742073657420706172616d6574657273214e6f7420616e206f7261636c652c2063616e6e6f7420616464206f7261636c65732153656e736f72207375727061737365642072657075746174696f6e207468726573686f6c6421546869732072657175657374206973206e6f7420696e206d792070656e64696e67206c6973742ea26469706673582212208adb362f346eaaa86d9739630128cca22671fb2d1a798e30bfb3ae69b60d3c2164736f6c63430006030033",
  "source": "pragma solidity 0.6.3;\r\nimport \"./Roles.sol\";\r\nimport \"./SafeMath.sol\";\r\nimport \"./CallerContractInterface.sol\";\r\nimport \"./CallerContract.sol\";\r\nimport \"./SensorValueOracleInterface.sol\";\r\n\r\ncontract AsymmetricSensorOracle is SensorValueOracleInterface {\r\n    using Roles for Roles.Role;\r\n    Roles.Role private owners;\r\n    Roles.Role private oracles;\r\n    using SafeMath for uint256;\r\n    uint256 private randNonce = 0;\r\n    uint256 private modulus = 1000;\r\n    uint256 private numOracles = 0;\r\n    uint256 private THRESHOLD = 0;\r\n    uint256 private RepTHRESHOLD = 0;\r\n    mapping(address => uint256) private ReputationRecord;\r\n    int256 private MaxVARIATION = 0;\r\n\r\n    mapping(uint256 => bool) pendingRequests;\r\n    struct Response {\r\n        address oracleAddress;\r\n        address callerAddress;\r\n        int256 sensorValue;\r\n    }\r\n\r\n    mapping(uint256 => Response[]) public requestIdToResponse;\r\n    event GetLatestSensorValueEvent(address callerAddress, uint256 id);\r\n    event SetLatestSensorValueEvent(int256 sensorValue, address callerAddress);\r\n    event AddOracleEvent(address oracleAddress);\r\n    event RemoveOracleEvent(address oracleAddress, string reason);\r\n    event SetThresholdEvent(uint256 threshold);\r\n    event VariationSurpassedEvent(\r\n        address oracleAddress,\r\n        int256 computedSensorValue,\r\n        int256 sensorValue\r\n    );\r\n    mapping(int256 => int256) counting;\r\n\r\n    constructor(address _owner) public {\r\n        oracles.add(_owner);\r\n        ReputationRecord[_owner] = 0;\r\n        numOracles++;\r\n    }\r\n\r\n    function addOracle(address _oracle) public {\r\n        require(oracles.has(msg.sender), \"Not an oracle, cannot add oracles!\");\r\n        require(!oracles.has(_oracle), \"Already an oracle!\");\r\n        oracles.add(_oracle);\r\n        ReputationRecord[_oracle] = 0;\r\n        numOracles++;\r\n    }\r\n\r\n    function removeOracle(address _oracle, string memory _reason) private {\r\n        require(oracles.has(_oracle), \"Not an oracle!\");\r\n        oracles.remove(_oracle);\r\n        delete ReputationRecord[_oracle];\r\n        numOracles--;\r\n        emit RemoveOracleEvent(_oracle, _reason);\r\n    }\r\n\r\n    function autoDestructOracle() public {\r\n        removeOracle(msg.sender, \"Sensor is self-removing from the subsystem!\");\r\n    }\r\n\r\n    function updateOracleSensorsList(uint256 _id, int256 _computedSensorValue)\r\n        private\r\n    {\r\n        int256 max = _computedSensorValue + MaxVARIATION;\r\n        int256 min = _computedSensorValue - MaxVARIATION;\r\n        for (uint256 f = 0; f < requestIdToResponse[_id].length; f++) {\r\n            address oracle = requestIdToResponse[_id][f].oracleAddress;\r\n            // Update Reputation Record\r\n            if (\r\n                (requestIdToResponse[_id][f].sensorValue > max) ||\r\n                (requestIdToResponse[_id][f].sensorValue < min)\r\n            ) {\r\n                ReputationRecord[oracle] = ReputationRecord[oracle] + 1;\r\n                emit VariationSurpassedEvent(\r\n                    oracle,\r\n                    _computedSensorValue,\r\n                    requestIdToResponse[_id][f].sensorValue\r\n                );\r\n            }\r\n            // Update OracleSensorsList\r\n            if (ReputationRecord[oracle] > RepTHRESHOLD) {\r\n                removeOracle(oracle, \"Sensor surpassed reputation threshold!\");\r\n            }\r\n        }\r\n    }\r\n\r\n    function setThreshold(uint256 _threshold) public {\r\n        require(oracles.has(msg.sender), \"Not an oracle, cannot set parameters!\");\r\n        THRESHOLD = _threshold;\r\n    }\r\n\r\n    function setReputationParameters(\r\n        uint256 _RepThreshold,\r\n        int256 _MaxVariation\r\n    ) public {\r\n        require(oracles.has(msg.sender), \"Not an oracle, cannot set parameters!\");\r\n        RepTHRESHOLD = _RepThreshold;\r\n        MaxVARIATION = _MaxVariation;\r\n    }\r\n\r\n    function getLatestSensorValue() public override returns (uint256) {\r\n        randNonce++;\r\n        uint256 id = uint256(\r\n            keccak256(abi.encodePacked(now, msg.sender, randNonce))\r\n        ) % modulus;\r\n        pendingRequests[id] = true;\r\n        emit GetLatestSensorValueEvent(msg.sender, id);\r\n        return id;\r\n    }\r\n\r\n    function setLatestSensorValue(\r\n        int256 _sensorValue,\r\n        address _callerAddress,\r\n        uint256 _id,\r\n        int256[] memory _relativeSensorValues\r\n    ) public {\r\n        require(oracles.has(msg.sender), \"Not an oracle!\");\r\n        require(\r\n            pendingRequests[_id],\r\n            \"This request is not in my pending list.\"\r\n        );\r\n        // Computing the absolute position of the system's center\r\n        int256 center = 0;\r\n        for (uint256 f = 0; f < numOracles; f++) {\r\n            center = center + _relativeSensorValues[f];\r\n        }\r\n        center =\r\n            center /\r\n            int256(_relativeSensorValues.length) +\r\n            _sensorValue;\r\n        Response memory resp;\r\n        resp = Response(msg.sender, _callerAddress, center);\r\n\r\n        requestIdToResponse[_id].push(resp);\r\n        uint256 numResponses = requestIdToResponse[_id].length;\r\n        if (numResponses == THRESHOLD) {\r\n            int256 computedSensorValue = requestIdToResponse[_id][0]\r\n                .sensorValue;\r\n            for (uint256 f = 0; f < requestIdToResponse[_id].length; f++) {\r\n                counting[requestIdToResponse[_id][f].sensorValue] = 0;\r\n            }\r\n            //Calculating the mode\r\n            for (uint256 f = 0; f < requestIdToResponse[_id].length; f++) {\r\n                counting[requestIdToResponse[_id][f].sensorValue] =\r\n                    counting[requestIdToResponse[_id][f].sensorValue] +\r\n                    1;\r\n                if (\r\n                    counting[requestIdToResponse[_id][f].sensorValue] >\r\n                    counting[computedSensorValue]\r\n                ) {\r\n                    computedSensorValue = requestIdToResponse[_id][f]\r\n                        .sensorValue;\r\n                }\r\n            }\r\n            updateOracleSensorsList(_id, computedSensorValue);\r\n            delete pendingRequests[_id];\r\n            delete requestIdToResponse[_id];\r\n            CallerContractInterface callerContractInstance;\r\n            callerContractInstance = CallerContractInterface(_callerAddress);\r\n            callerContractInstance.callback(\r\n                computedSensorValue,\r\n                _id,\r\n                \"position\"\r\n            );\r\n        }\r\n    }\r\n}\r\n",
  "sourcePath": "/home/rsx02/hyperledger-besu/SubSystem Blockchain/contracts/AsymmetricSensorOracle.sol",
  "compiler": {
    "name": "solc",
    "version": "0.6.3+commit.8dda9521.Emscripten.clang"
  },
  "schemaVersion": "3.4.1",
  "updatedAt": "2021-06-28T13:01:54.499Z",
  "networkType": "ethereum",
  "devdoc": {
    "methods": {}
  },
  "userdoc": {
    "methods": {}
  }
}