{
  "contractName": "CallerContract",
  "abi": [
    {
      "anonymous": false,
      "inputs": [
        {
          "indexed": false,
          "internalType": "uint256",
          "name": "id",
          "type": "uint256"
        }
      ],
      "name": "ReceivedNewRequestIdEvent",
      "type": "event"
    },
    {
      "anonymous": false,
      "inputs": [
        {
          "indexed": false,
          "internalType": "int256",
          "name": "sensorValue",
          "type": "int256"
        },
        {
          "indexed": false,
          "internalType": "uint256",
          "name": "id",
          "type": "uint256"
        }
      ],
      "name": "ValueUpdatedEvent",
      "type": "event"
    },
    {
      "anonymous": false,
      "inputs": [
        {
          "indexed": false,
          "internalType": "address",
          "name": "oracleAddress",
          "type": "address"
        }
      ],
      "name": "newOracleAddressEvent",
      "type": "event"
    },
    {
      "inputs": [
        {
          "internalType": "address",
          "name": "_oracleInstanceAddress",
          "type": "address"
        }
      ],
      "name": "addOracleInstanceAddress",
      "outputs": [],
      "stateMutability": "nonpayable",
      "type": "function"
    },
    {
      "inputs": [
        {
          "internalType": "address",
          "name": "_communicationOracleAddress",
          "type": "address"
        }
      ],
      "name": "setCommunicationOracleInstanceAddress",
      "outputs": [],
      "stateMutability": "nonpayable",
      "type": "function"
    },
    {
      "inputs": [
        {
          "internalType": "address",
          "name": "_oracleInstanceAddress",
          "type": "address"
        }
      ],
      "name": "updateSensorValue",
      "outputs": [],
      "stateMutability": "nonpayable",
      "type": "function"
    },
    {
      "inputs": [
        {
          "internalType": "int256",
          "name": "_sensorValue",
          "type": "int256"
        },
        {
          "internalType": "uint256",
          "name": "_id",
          "type": "uint256"
        },
        {
          "internalType": "string",
          "name": "_sensorType",
          "type": "string"
        }
      ],
      "name": "callback",
      "outputs": [],
      "stateMutability": "nonpayable",
      "type": "function"
    }
  ],
  "bytecode": "0x608060405234801561001057600080fd5b5061092b806100206000396000f3fe608060405234801561001057600080fd5b506004361061004c5760003560e01c806303d2503314610051578063450ddda8146100955780637e87b5e3146100d9578063e72e07f3146101a8575b600080fd5b6100936004803603602081101561006757600080fd5b81019080803573ffffffffffffffffffffffffffffffffffffffff1690602001909291905050506101ec565b005b6100d7600480360360208110156100ab57600080fd5b81019080803573ffffffffffffffffffffffffffffffffffffffff169060200190929190505050610385565b005b6101a6600480360360608110156100ef57600080fd5b8101908080359060200190929190803590602001909291908035906020019064010000000081111561012057600080fd5b82018360208201111561013257600080fd5b8035906020019184600183028401116401000000008311171561015457600080fd5b91908080601f016020809104026020016040519081016040528093929190818152602001838380828437600081840152601f19601f820116905080830192505050505050509192919290505050610578565b005b6101ea600480360360208110156101be57600080fd5b81019080803573ffffffffffffffffffffffffffffffffffffffff1690602001909291905050506107fa565b005b600460008273ffffffffffffffffffffffffffffffffffffffff1673ffffffffffffffffffffffffffffffffffffffff16815260200190815260200160002060009054906101000a900460ff16156102ac576040517f08c379a000000000000000000000000000000000000000000000000000000000815260040180806020018281038252601f8152602001807f5468697320636f6e747261637420697320616c72656164792073617665642e0081525060200191505060405180910390fd5b6001600460008373ffffffffffffffffffffffffffffffffffffffff1673ffffffffffffffffffffffffffffffffffffffff16815260200190815260200160002060006101000a81548160ff02191690831515021790555080600360008373ffffffffffffffffffffffffffffffffffffffff1673ffffffffffffffffffffffffffffffffffffffff16815260200190815260200160002060006101000a81548173ffffffffffffffffffffffffffffffffffffffff021916908373ffffffffffffffffffffffffffffffffffffffff16021790555050565b600160009054906101000a900473ffffffffffffffffffffffffffffffffffffffff1673ffffffffffffffffffffffffffffffffffffffff163373ffffffffffffffffffffffffffffffffffffffff161461042b576040517f08c379a000000000000000000000000000000000000000000000000000000000815260040180806020018281038252602d8152602001806108a2602d913960400191505060405180910390fd5b6000600360008373ffffffffffffffffffffffffffffffffffffffff1673ffffffffffffffffffffffffffffffffffffffff16815260200190815260200160002060009054906101000a900473ffffffffffffffffffffffffffffffffffffffff1673ffffffffffffffffffffffffffffffffffffffff16633b6f15666040518163ffffffff1660e01b8152600401602060405180830381600087803b1580156104d457600080fd5b505af11580156104e8573d6000803e3d6000fd5b505050506040513d60208110156104fe57600080fd5b8101908080519060200190929190505050905060016005600083815260200190815260200160002060006101000a81548160ff0219169083151502179055507f3ed150819af981e387450beb90ec379b8b322150dbb299d492b108c59a623e4b816040518082815260200191505060405180910390a15050565b600460003373ffffffffffffffffffffffffffffffffffffffff1673ffffffffffffffffffffffffffffffffffffffff16815260200190815260200160002060009054906101000a900460ff1661061a576040517f08c379a000000000000000000000000000000000000000000000000000000000815260040180806020018281038252602d8152602001806108a2602d913960400191505060405180910390fd5b6005600083815260200190815260200160002060009054906101000a900460ff16610690576040517f08c379a00000000000000000000000000000000000000000000000000000000081526004018080602001828103825260278152602001806108cf6027913960400191505060405180910390fd5b826000819055506005600083815260200190815260200160002060006101000a81549060ff02191690557fc0479d00dfadd2affeecdc849a7c28633d79889c44e02d25f2b6b601ece325508383604051808381526020018281526020019250505060405180910390a1600260009054906101000a900473ffffffffffffffffffffffffffffffffffffffff1673ffffffffffffffffffffffffffffffffffffffff1663f79efbb4600054836040518363ffffffff1660e01b81526004018083815260200180602001828103825283818151815260200191508051906020019080838360005b83811015610790578082015181840152602081019050610775565b50505050905090810190601f1680156107bd5780820380516001836020036101000a031916815260200191505b509350505050600060405180830381600087803b1580156107dd57600080fd5b505af11580156107f1573d6000803e3d6000fd5b50505050505050565b80600160006101000a81548173ffffffffffffffffffffffffffffffffffffffff021916908373ffffffffffffffffffffffffffffffffffffffff160217905550600160009054906101000a900473ffffffffffffffffffffffffffffffffffffffff16600260006101000a81548173ffffffffffffffffffffffffffffffffffffffff021916908373ffffffffffffffffffffffffffffffffffffffff1602179055505056fe596f7520617265206e6f7420617574686f72697a656420746f2063616c6c20746869732066756e6374696f6e2e546869732072657175657374206973206e6f7420696e206d792070656e64696e67206c6973742ea2646970667358221220bc0613fd76d81cfeff6c1236c2ebcc4ca902299231f87d434f78c32dbf89fd8e64736f6c63430006030033",
  "source": "pragma solidity 0.6.3;\r\nimport \"./SensorValueOracleInterface.sol\";\r\nimport \"./CallerContractInterface.sol\";\r\nimport \"./CommunicationOracleInterface.sol\";\r\n\r\ncontract CallerContract is CallerContractInterface {\r\n    int256 private sensorValue;\r\n    address private communicationOracleAddress;\r\n    CommunicationOracleInterface communicationInstance;\r\n\r\n    mapping(address => SensorValueOracleInterface) private oracleInstance;\r\n    mapping(address => bool) private oracleAddress;\r\n    mapping(uint256 => bool) myRequests;\r\n\r\n    event newOracleAddressEvent(address oracleAddress);\r\n    event ReceivedNewRequestIdEvent(uint256 id);\r\n    event ValueUpdatedEvent(int256 sensorValue, uint256 id);\r\n\r\n    function addOracleInstanceAddress(address _oracleInstanceAddress) public {\r\n        require(\r\n            !oracleAddress[_oracleInstanceAddress],\r\n            \"This contract is already saved.\"\r\n        );\r\n        oracleAddress[_oracleInstanceAddress] = true;\r\n        oracleInstance[_oracleInstanceAddress] = SensorValueOracleInterface(\r\n            _oracleInstanceAddress\r\n        );\r\n    }\r\n\r\n    function setCommunicationOracleInstanceAddress(\r\n        address _communicationOracleAddress\r\n    ) public {\r\n        communicationOracleAddress = _communicationOracleAddress;\r\n        communicationInstance = CommunicationOracleInterface(\r\n            communicationOracleAddress\r\n        );\r\n    }\r\n\r\n    function updateSensorValue(address _oracleInstanceAddress) public override {\r\n        require(msg.sender == communicationOracleAddress,\"You are not authorized to call this function.\");\r\n        uint256 id = oracleInstance[_oracleInstanceAddress]\r\n            .getLatestSensorValue();\r\n        myRequests[id] = true;\r\n        emit ReceivedNewRequestIdEvent(id);\r\n    }\r\n\r\n    function callback(\r\n        int256 _sensorValue,\r\n        uint256 _id,\r\n        string memory _sensorType\r\n    ) public override onlyOracle {\r\n        require(myRequests[_id], \"This request is not in my pending list.\");\r\n        sensorValue = _sensorValue;\r\n        delete myRequests[_id];\r\n        emit ValueUpdatedEvent(_sensorValue, _id);\r\n        communicationInstance.receiveSensorValue(sensorValue, _sensorType);\r\n    }\r\n\r\n    modifier onlyOracle() {\r\n        require(\r\n            oracleAddress[msg.sender],\r\n            \"You are not authorized to call this function.\"\r\n        );\r\n        _;\r\n    }\r\n}\r\n",
  "sourcePath": "/home/rsx02/hyperledger-besu/SubSystem Blockchain/contracts/CallerContract.sol",
  "compiler": {
    "name": "solc",
    "version": "0.6.3+commit.8dda9521.Emscripten.clang"
  },
  "schemaVersion": "3.4.1",
  "updatedAt": "2021-06-28T13:01:50.144Z",
  "networkType": "ethereum",
  "devdoc": {
    "methods": {}
  },
  "userdoc": {
    "methods": {}
  }
}