{
  "contractName": "CommunicationOracle",
  "abi": [
    {
      "inputs": [
        {
          "internalType": "address",
          "name": "_owner",
          "type": "address"
        }
      ],
      "stateMutability": "nonpayable",
      "type": "constructor"
    },
    {
      "anonymous": false,
      "inputs": [
        {
          "indexed": false,
          "internalType": "address",
          "name": "oracleAddress",
          "type": "address"
        }
      ],
      "name": "AddOracleEvent",
      "type": "event"
    },
    {
      "anonymous": false,
      "inputs": [
        {
          "indexed": false,
          "internalType": "address",
          "name": "sender",
          "type": "address"
        },
        {
          "indexed": false,
          "internalType": "address",
          "name": "oracle",
          "type": "address"
        },
        {
          "indexed": false,
          "internalType": "string",
          "name": "flag",
          "type": "string"
        }
      ],
      "name": "DeleteSensorRequest",
      "type": "event"
    },
    {
      "anonymous": false,
      "inputs": [
        {
          "indexed": false,
          "internalType": "address",
          "name": "sender",
          "type": "address"
        },
        {
          "indexed": false,
          "internalType": "address",
          "name": "oracle",
          "type": "address"
        },
        {
          "indexed": false,
          "internalType": "uint256",
          "name": "num",
          "type": "uint256"
        }
      ],
      "name": "NewSensorRequest",
      "type": "event"
    },
    {
      "anonymous": false,
      "inputs": [
        {
          "indexed": false,
          "internalType": "address",
          "name": "oracleAddress",
          "type": "address"
        },
        {
          "indexed": false,
          "internalType": "string",
          "name": "reason",
          "type": "string"
        }
      ],
      "name": "RemoveOracleEvent",
      "type": "event"
    },
    {
      "anonymous": false,
      "inputs": [
        {
          "indexed": false,
          "internalType": "address",
          "name": "sender",
          "type": "address"
        },
        {
          "indexed": false,
          "internalType": "address",
          "name": "callerAddress",
          "type": "address"
        },
        {
          "indexed": false,
          "internalType": "uint256",
          "name": "id",
          "type": "uint256"
        },
        {
          "indexed": false,
          "internalType": "string",
          "name": "messageToSend",
          "type": "string"
        }
      ],
      "name": "SendMessageToAntennaEvent",
      "type": "event"
    },
    {
      "anonymous": false,
      "inputs": [
        {
          "indexed": false,
          "internalType": "uint256",
          "name": "threshold",
          "type": "uint256"
        }
      ],
      "name": "SetThresholdEvent",
      "type": "event"
    },
    {
      "anonymous": false,
      "inputs": [
        {
          "indexed": false,
          "internalType": "address",
          "name": "oracleAddress",
          "type": "address"
        },
        {
          "indexed": false,
          "internalType": "int256",
          "name": "computedSensorValue",
          "type": "int256"
        },
        {
          "indexed": false,
          "internalType": "int256",
          "name": "sensorValue",
          "type": "int256"
        }
      ],
      "name": "VariationSurpassedEvent",
      "type": "event"
    },
    {
      "inputs": [
        {
          "internalType": "address",
          "name": "",
          "type": "address"
        }
      ],
      "name": "pendingSensorRequests",
      "outputs": [
        {
          "internalType": "bool",
          "name": "",
          "type": "bool"
        }
      ],
      "stateMutability": "view",
      "type": "function",
      "constant": true
    },
    {
      "inputs": [
        {
          "internalType": "address",
          "name": "",
          "type": "address"
        },
        {
          "internalType": "uint256",
          "name": "",
          "type": "uint256"
        }
      ],
      "name": "requestSensorToRequest",
      "outputs": [
        {
          "internalType": "address",
          "name": "oracleAddress",
          "type": "address"
        },
        {
          "internalType": "address",
          "name": "otherAddress",
          "type": "address"
        }
      ],
      "stateMutability": "view",
      "type": "function",
      "constant": true
    },
    {
      "inputs": [
        {
          "internalType": "address",
          "name": "_oracle",
          "type": "address"
        }
      ],
      "name": "addOracle",
      "outputs": [],
      "stateMutability": "nonpayable",
      "type": "function"
    },
    {
      "inputs": [],
      "name": "autoDestructOracle",
      "outputs": [],
      "stateMutability": "nonpayable",
      "type": "function"
    },
    {
      "inputs": [
        {
          "internalType": "uint256",
          "name": "_threshold",
          "type": "uint256"
        }
      ],
      "name": "setThreshold",
      "outputs": [],
      "stateMutability": "nonpayable",
      "type": "function"
    },
    {
      "inputs": [
        {
          "internalType": "uint256",
          "name": "_RepThreshold",
          "type": "uint256"
        },
        {
          "internalType": "int256",
          "name": "_MaxVariation",
          "type": "int256"
        }
      ],
      "name": "setReputationParameters",
      "outputs": [],
      "stateMutability": "nonpayable",
      "type": "function"
    },
    {
      "inputs": [
        {
          "internalType": "string",
          "name": "message",
          "type": "string"
        }
      ],
      "name": "sendMessageToAntenna",
      "outputs": [
        {
          "internalType": "uint256",
          "name": "",
          "type": "uint256"
        }
      ],
      "stateMutability": "nonpayable",
      "type": "function"
    },
    {
      "inputs": [
        {
          "internalType": "string",
          "name": "message",
          "type": "string"
        },
        {
          "internalType": "uint256",
          "name": "status",
          "type": "uint256"
        }
      ],
      "name": "verifyMessageSending",
      "outputs": [],
      "stateMutability": "nonpayable",
      "type": "function"
    },
    {
      "inputs": [
        {
          "internalType": "address",
          "name": "_callerAddress",
          "type": "address"
        },
        {
          "internalType": "address",
          "name": "_sensor_oracle_address",
          "type": "address"
        }
      ],
      "name": "askSensorValue",
      "outputs": [],
      "stateMutability": "nonpayable",
      "type": "function"
    },
    {
      "inputs": [
        {
          "internalType": "int256",
          "name": "_sensorValue",
          "type": "int256"
        },
        {
          "internalType": "string",
          "name": "_sensorType",
          "type": "string"
        }
      ],
      "name": "receiveSensorValue",
      "outputs": [],
      "stateMutability": "nonpayable",
      "type": "function"
    }
  ],
  "bytecode": "0x608060405260006002556103e860035560006004556000600555600060065560006008553480156200003057600080fd5b5060405162001f1e38038062001f1e833981810160405260208110156200005657600080fd5b810190808051906020019092919050505062000082816001620000e060201b620016df1790919060201c565b6000600760008373ffffffffffffffffffffffffffffffffffffffff1673ffffffffffffffffffffffffffffffffffffffff168152602001908152602001600020819055506004600081548092919060010191905055505062000229565b600073ffffffffffffffffffffffffffffffffffffffff168173ffffffffffffffffffffffffffffffffffffffff1614156200011b57600080fd5b6200012d82826200019660201b60201c565b156200013857600080fd5b60018260000160008373ffffffffffffffffffffffffffffffffffffffff1673ffffffffffffffffffffffffffffffffffffffff16815260200190815260200160002060006101000a81548160ff0219169083151502179055505050565b60008073ffffffffffffffffffffffffffffffffffffffff168273ffffffffffffffffffffffffffffffffffffffff161415620001d257600080fd5b8260000160008373ffffffffffffffffffffffffffffffffffffffff1673ffffffffffffffffffffffffffffffffffffffff16815260200190815260200160002060009054906101000a900460ff16905092915050565b611ce580620002396000396000f3fe608060405234801561001057600080fd5b506004361061009e5760003560e01c8063c15409ea11610066578063c15409ea1461035e578063d0cd0da6146103ba578063d12bcffb1461041e578063df5dd1a514610428578063f79efbb41461046c5761009e565b80635cf2407e146100a35780636205b58e14610168578063960bfe04146102295780639edd4717146102575780639f9ce7d514610326575b600080fd5b610166600480360360408110156100b957600080fd5b81019080803590602001906401000000008111156100d657600080fd5b8201836020820111156100e857600080fd5b8035906020019184600183028401116401000000008311171561010a57600080fd5b91908080601f016020809104026020016040519081016040528093929190818152602001838380828437600081840152601f19601f82011690508083019250505050505050919291929080359060200190929190505050610531565b005b6101b46004803603604081101561017e57600080fd5b81019080803573ffffffffffffffffffffffffffffffffffffffff16906020019092919080359060200190929190505050610535565b604051808373ffffffffffffffffffffffffffffffffffffffff1673ffffffffffffffffffffffffffffffffffffffff1681526020018273ffffffffffffffffffffffffffffffffffffffff1673ffffffffffffffffffffffffffffffffffffffff1681526020019250505060405180910390f35b6102556004803603602081101561023f57600080fd5b81019080803590602001909291905050506105b3565b005b6103106004803603602081101561026d57600080fd5b810190808035906020019064010000000081111561028a57600080fd5b82018360208201111561029c57600080fd5b803590602001918460018302840111640100000000831117156102be57600080fd5b91908080601f016020809104026020016040519081016040528093929190818152602001838380828437600081840152601f19601f820116905080830192505050505050509192919290505050610626565b6040518082815260200191505060405180910390f35b61035c6004803603604081101561033c57600080fd5b8101908080359060200190929190803590602001909291905050506108c2565b005b6103a06004803603602081101561037457600080fd5b81019080803573ffffffffffffffffffffffffffffffffffffffff16906020019092919050505061093d565b604051808215151515815260200191505060405180910390f35b61041c600480360360408110156103d057600080fd5b81019080803573ffffffffffffffffffffffffffffffffffffffff169060200190929190803573ffffffffffffffffffffffffffffffffffffffff16906020019092919050505061095d565b005b61042661106a565b005b61046a6004803603602081101561043e57600080fd5b81019080803573ffffffffffffffffffffffffffffffffffffffff16906020019092919050505061108e565b005b61052f6004803603604081101561048257600080fd5b8101908080359060200190929190803590602001906401000000008111156104a957600080fd5b8201836020820111156104bb57600080fd5b803590602001918460018302840111640100000000831117156104dd57600080fd5b91908080601f016020809104026020016040519081016040528093929190818152602001838380828437600081840152601f19601f82011690508083019250505050505050919291929050505061124f565b005b5050565b600a602052816000526040600020818154811061054e57fe5b9060005260206000209060020201600091509150508060000160009054906101000a900473ffffffffffffffffffffffffffffffffffffffff16908060010160009054906101000a900473ffffffffffffffffffffffffffffffffffffffff16905082565b6105c73360016112b590919063ffffffff16565b61061c576040517f08c379a0000000000000000000000000000000000000000000000000000000008152600401808060200182810382526025815260200180611c696025913960400191505060405180910390fd5b8060058190555050565b60006002600081548092919060010191905055506000600c805490504233600254604051602001808481526020018373ffffffffffffffffffffffffffffffffffffffff1673ffffffffffffffffffffffffffffffffffffffff1660601b815260140182815260200193505050506040516020818303038152906040528051906020012060001c816106b457fe5b0690506000600c82815481106106c657fe5b9060005260206000200160009054906101000a900473ffffffffffffffffffffffffffffffffffffffff16905060026000815480929190600101919050555060006003544233600254604051602001808481526020018373ffffffffffffffffffffffffffffffffffffffff1673ffffffffffffffffffffffffffffffffffffffff1660601b815260140182815260200193505050506040516020818303038152906040528051906020012060001c8161077c57fe5b06905060016009600083815260200190815260200160002060006101000a81548160ff0219169083151502179055507fae94129465f46f01fa82f7abd145268b606c72d3a26a888ee67fecf02290f71b82338388604051808573ffffffffffffffffffffffffffffffffffffffff1673ffffffffffffffffffffffffffffffffffffffff1681526020018473ffffffffffffffffffffffffffffffffffffffff1673ffffffffffffffffffffffffffffffffffffffff16815260200183815260200180602001828103825283818151815260200191508051906020019080838360005b8381101561087a57808201518184015260208101905061085f565b50505050905090810190601f1680156108a75780820380516001836020036101000a031916815260200191505b509550505050505060405180910390a1809350505050919050565b6108d63360016112b590919063ffffffff16565b61092b576040517f08c379a0000000000000000000000000000000000000000000000000000000008152600401808060200182810382526025815260200180611c696025913960400191505060405180910390fd5b81600681905550806008819055505050565b600b6020528060005260406000206000915054906101000a900460ff1681565b6109713360016112b590919063ffffffff16565b6109e3576040517f08c379a000000000000000000000000000000000000000000000000000000000815260040180806020018281038252600e8152602001807f4e6f7420616e206f7261636c652100000000000000000000000000000000000081525060200191505060405180910390fd5b600b60003373ffffffffffffffffffffffffffffffffffffffff1673ffffffffffffffffffffffffffffffffffffffff16815260200190815260200160002060009054906101000a900460ff1615610a86576040517f08c379a000000000000000000000000000000000000000000000000000000000815260040180806020018281038252602c815260200180611c12602c913960400191505060405180910390fd5b6001600b60003373ffffffffffffffffffffffffffffffffffffffff1673ffffffffffffffffffffffffffffffffffffffff16815260200190815260200160002060006101000a81548160ff021916908315150217905550610ae6611b3a565b60405180604001604052803373ffffffffffffffffffffffffffffffffffffffff1681526020018473ffffffffffffffffffffffffffffffffffffffff168152509050600a60008373ffffffffffffffffffffffffffffffffffffffff1673ffffffffffffffffffffffffffffffffffffffff16815260200190815260200160002081908060018154018082558091505060019003906000526020600020906002020160009091909190915060008201518160000160006101000a81548173ffffffffffffffffffffffffffffffffffffffff021916908373ffffffffffffffffffffffffffffffffffffffff16021790555060208201518160010160006101000a81548173ffffffffffffffffffffffffffffffffffffffff021916908373ffffffffffffffffffffffffffffffffffffffff16021790555050506000600a60008473ffffffffffffffffffffffffffffffffffffffff1673ffffffffffffffffffffffffffffffffffffffff1681526020019081526020016000208054905090507f11e2f65c58a3570df8b58e884ec249e15d8269ab6ddc2408d0e7ce1a5a33ac45338483604051808473ffffffffffffffffffffffffffffffffffffffff1673ffffffffffffffffffffffffffffffffffffffff1681526020018373ffffffffffffffffffffffffffffffffffffffff1673ffffffffffffffffffffffffffffffffffffffff168152602001828152602001935050505060405180910390a16005548114156110645760008490508073ffffffffffffffffffffffffffffffffffffffff1663450ddda8856040518263ffffffff1660e01b8152600401808273ffffffffffffffffffffffffffffffffffffffff1673ffffffffffffffffffffffffffffffffffffffff168152602001915050600060405180830381600087803b158015610d9657600080fd5b505af1158015610daa573d6000803e3d6000fd5b5050505083836020019073ffffffffffffffffffffffffffffffffffffffff16908173ffffffffffffffffffffffffffffffffffffffff168152505060008090505b82811015611016577fd77b97eab0269c12f77f0041b0b08db90a4d531a1f8aa869b21ea60d0570a34a600a60008773ffffffffffffffffffffffffffffffffffffffff1673ffffffffffffffffffffffffffffffffffffffff1681526020019081526020016000208281548110610e5f57fe5b906000526020600020906002020160000160009054906101000a900473ffffffffffffffffffffffffffffffffffffffff1686604051808373ffffffffffffffffffffffffffffffffffffffff1673ffffffffffffffffffffffffffffffffffffffff1681526020018273ffffffffffffffffffffffffffffffffffffffff1673ffffffffffffffffffffffffffffffffffffffff16815260200180602001828103825260188152602001807f44656c6574696e672070656e64696e6752657175657374730000000000000000815250602001935050505060405180910390a1600b6000600a60008873ffffffffffffffffffffffffffffffffffffffff1673ffffffffffffffffffffffffffffffffffffffff1681526020019081526020016000208381548110610f8d57fe5b906000526020600020906002020160000160009054906101000a900473ffffffffffffffffffffffffffffffffffffffff1673ffffffffffffffffffffffffffffffffffffffff1673ffffffffffffffffffffffffffffffffffffffff16815260200190815260200160002060006101000a81549060ff02191690558080600101915050610dec565b50600a60008573ffffffffffffffffffffffffffffffffffffffff1673ffffffffffffffffffffffffffffffffffffffff16815260200190815260200160002060006110629190611b80565b505b50505050565b61108c336040518060600160405280602b8152602001611c3e602b9139611347565b565b6110a23360016112b590919063ffffffff16565b6110f7576040517f08c379a0000000000000000000000000000000000000000000000000000000008152600401808060200182810382526022815260200180611c8e6022913960400191505060405180910390fd5b61110b8160016112b590919063ffffffff16565b1561117e576040517f08c379a00000000000000000000000000000000000000000000000000000000081526004018080602001828103825260128152602001807f416c726561647920616e206f7261636c6521000000000000000000000000000081525060200191505060405180910390fd5b6111928160016116df90919063ffffffff16565b600c819080600181540180825580915050600190039060005260206000200160009091909190916101000a81548173ffffffffffffffffffffffffffffffffffffffff021916908373ffffffffffffffffffffffffffffffffffffffff1602179055506000600760008373ffffffffffffffffffffffffffffffffffffffff1673ffffffffffffffffffffffffffffffffffffffff1681526020019081526020016000208190555060046000815480929190600101919050555050565b60606112986040518060400160405280601181526020017f20757064617465642076616c7565203d200000000000000000000000000000008152506112938561178b565b611946565b90506112a48282611946565b90506112af81610626565b50505050565b60008073ffffffffffffffffffffffffffffffffffffffff168273ffffffffffffffffffffffffffffffffffffffff1614156112f057600080fd5b8260000160008373ffffffffffffffffffffffffffffffffffffffff1673ffffffffffffffffffffffffffffffffffffffff16815260200190815260200160002060009054906101000a900460ff16905092915050565b61135b8260016112b590919063ffffffff16565b6113cd576040517f08c379a000000000000000000000000000000000000000000000000000000000815260040180806020018281038252600e8152602001807f4e6f7420616e206f7261636c652100000000000000000000000000000000000081525060200191505060405180910390fd5b6113e1826001611a8f90919063ffffffff16565b60008090505b600c80549050811015611565578273ffffffffffffffffffffffffffffffffffffffff16600c828154811061141857fe5b9060005260206000200160009054906101000a900473ffffffffffffffffffffffffffffffffffffffff1673ffffffffffffffffffffffffffffffffffffffff1614156115585760008190505b6001600c805490500382101561151257600c600183018154811061148557fe5b9060005260206000200160009054906101000a900473ffffffffffffffffffffffffffffffffffffffff16600c83815481106114bd57fe5b9060005260206000200160006101000a81548173ffffffffffffffffffffffffffffffffffffffff021916908373ffffffffffffffffffffffffffffffffffffffff1602179055508080600101915050611465565b50600c80548061151e57fe5b6001900381819060005260206000200160006101000a81549073ffffffffffffffffffffffffffffffffffffffff02191690559055611565565b80806001019150506113e7565b50600760008373ffffffffffffffffffffffffffffffffffffffff1673ffffffffffffffffffffffffffffffffffffffff16815260200190815260200160002060009055600b60008373ffffffffffffffffffffffffffffffffffffffff1673ffffffffffffffffffffffffffffffffffffffff16815260200190815260200160002060006101000a81549060ff0219169055600460008154809291906001900391905055507fe245a3c31307c058d22017c6a88c565a2db0132fc4bb9528c70fdff4008f594b8282604051808373ffffffffffffffffffffffffffffffffffffffff1673ffffffffffffffffffffffffffffffffffffffff16815260200180602001828103825283818151815260200191508051906020019080838360005b838110156116a0578082015181840152602081019050611685565b50505050905090810190601f1680156116cd5780820380516001836020036101000a031916815260200191505b50935050505060405180910390a15050565b600073ffffffffffffffffffffffffffffffffffffffff168173ffffffffffffffffffffffffffffffffffffffff16141561171957600080fd5b61172382826112b5565b1561172d57600080fd5b60018260000160008373ffffffffffffffffffffffffffffffffffffffff1673ffffffffffffffffffffffffffffffffffffffff16815260200190815260200160002060006101000a81548160ff0219169083151502179055505050565b606060008214156117d3576040518060400160405280600181526020017f30000000000000000000000000000000000000000000000000000000000000008152509050611941565b600080831290506000816117e757836117ec565b836000035b9050600081905060005b60008314611818578080600101915050600a838161181057fe5b0492506117f6565b8315611825578060010190505b6060816040519080825280601f01601f19166020018201604052801561185a5781602001600182028036833780820191505090505b50905060006001830390505b600084146118d357600a848161187857fe5b0660300160f81b8282806001900393508151811061189257fe5b60200101907effffffffffffffffffffffffffffffffffffffffffffffffffffffffffffff1916908160001a905350600a84816118cb57fe5b049350611866565b8515611937577f2d000000000000000000000000000000000000000000000000000000000000008260008151811061190757fe5b60200101907effffffffffffffffffffffffffffffffffffffffffffffffffffffffffffff1916908160001a9053505b8196505050505050505b919050565b6060808390506060839050606081518351016040519080825280601f01601f19166020018201604052801561198a5781602001600182028036833780820191505090505b5090506060819050600080905060008090505b8551811015611a0b578581815181106119b257fe5b602001015160f81c60f81b8383806001019450815181106119cf57fe5b60200101907effffffffffffffffffffffffffffffffffffffffffffffffffffffffffffff1916908160001a905350808060010191505061199d565b5060008090505b8451811015611a8057848181518110611a2757fe5b602001015160f81c60f81b838380600101945081518110611a4457fe5b60200101907effffffffffffffffffffffffffffffffffffffffffffffffffffffffffffff1916908160001a9053508080600101915050611a12565b50819550505050505092915050565b600073ffffffffffffffffffffffffffffffffffffffff168173ffffffffffffffffffffffffffffffffffffffff161415611ac957600080fd5b611ad382826112b5565b611adc57600080fd5b60008260000160008373ffffffffffffffffffffffffffffffffffffffff1673ffffffffffffffffffffffffffffffffffffffff16815260200190815260200160002060006101000a81548160ff0219169083151502179055505050565b6040518060400160405280600073ffffffffffffffffffffffffffffffffffffffff168152602001600073ffffffffffffffffffffffffffffffffffffffff1681525090565b5080546000825560020290600052602060002090810190611ba19190611ba4565b50565b611c0e91905b80821115611c0a57600080820160006101000a81549073ffffffffffffffffffffffffffffffffffffffff02191690556001820160006101000a81549073ffffffffffffffffffffffffffffffffffffffff021916905550600201611baa565b5090565b9056fe50726576696f7573207265717565737420686173206e6f7420796574206265656e2070726f6365737365642153656e736f722069732073656c662d72656d6f76696e672066726f6d207468652073756273797374656d214e6f7420616e206f7261636c652c2063616e6e6f742073657420706172616d6574657273214e6f7420616e206f7261636c652c2063616e6e6f7420616464206f7261636c657321a2646970667358221220938a0992f0daa92df99b68a1b6a753acfde313896de90215b097b906d965dc9564736f6c63430006030033",
  "source": "pragma solidity 0.6.3;\r\nimport \"./Roles.sol\";\r\nimport \"./SafeMath.sol\";\r\nimport \"./CallerContractInterface.sol\";\r\nimport \"./CommunicationOracleInterface.sol\";\r\n\r\ncontract CommunicationOracle is CommunicationOracleInterface {\r\n    using Roles for Roles.Role;\r\n    Roles.Role private owners;\r\n    Roles.Role private oracles;\r\n    using SafeMath for uint256;\r\n    uint256 private randNonce = 0;\r\n    uint256 private modulus = 1000;\r\n    uint256 private numOracles = 0;\r\n    uint256 private THRESHOLD = 0;\r\n\r\n    uint256 private RepTHRESHOLD = 0;\r\n    mapping(address => uint256) private ReputationRecord;\r\n    int256 private MaxVARIATION = 0;\r\n\r\n    mapping(uint256 => bool) pendingRequests;\r\n\r\n    struct Request {\r\n        address oracleAddress;\r\n        address otherAddress;\r\n    }\r\n    mapping(address => Request[]) public requestSensorToRequest;\r\n    mapping(address => bool) public pendingSensorRequests;\r\n\r\n    //variable to randomly choose oracle to respond to ground station\r\n    address[] oraclesStored;\r\n\r\n    event SendMessageToAntennaEvent(\r\n        address sender,\r\n        address callerAddress,\r\n        uint256 id,\r\n        string messageToSend\r\n    );\r\n    //event SetLatestSensorValueEvent(uint256 sensorValue, address callerAddress);\r\n    event AddOracleEvent(address oracleAddress);\r\n    event RemoveOracleEvent(address oracleAddress, string reason);\r\n    event SetThresholdEvent(uint256 threshold);\r\n\r\n    event DeleteSensorRequest(address sender, address oracle, string flag);\r\n    event NewSensorRequest(address sender, address oracle, uint num);\r\n\r\n    event VariationSurpassedEvent(\r\n        address oracleAddress,\r\n        int256 computedSensorValue,\r\n        int256 sensorValue\r\n    );\r\n\r\n    constructor(address _owner) public {\r\n        oracles.add(_owner);\r\n        ReputationRecord[_owner] = 0;\r\n        numOracles++;\r\n    }\r\n\r\n    function addOracle(address _oracle) public {\r\n        require(oracles.has(msg.sender), \"Not an oracle, cannot add oracles!\");\r\n        require(!oracles.has(_oracle), \"Already an oracle!\");\r\n        oracles.add(_oracle);\r\n        oraclesStored.push(_oracle);\r\n        ReputationRecord[_oracle] = 0;\r\n        numOracles++;\r\n    }\r\n\r\n    function removeOracle(address _oracle, string memory _reason) private {\r\n        require(oracles.has(_oracle), \"Not an oracle!\");\r\n        oracles.remove(_oracle);\r\n\r\n        //delete oracle for stored list\r\n        for (uint i=0; i < oraclesStored.length; i++) {\r\n            if (oraclesStored[i] == _oracle) {\r\n                for (uint j=i; i < oraclesStored.length-1; j++) {\r\n                    oraclesStored[i] = oraclesStored[i+1];\r\n                }\r\n                oraclesStored.pop();\r\n                break;\r\n            }\r\n        }\r\n\r\n        delete ReputationRecord[_oracle];\r\n        delete pendingSensorRequests[_oracle];\r\n\r\n        numOracles--;\r\n        emit RemoveOracleEvent(_oracle, _reason);\r\n    }\r\n\r\n    function autoDestructOracle() public {\r\n        removeOracle(msg.sender, \"Sensor is self-removing from the subsystem!\");\r\n    }\r\n\r\n    function setThreshold(uint256 _threshold) public {\r\n        require(oracles.has(msg.sender), \"Not an oracle, cannot set parameters!\");\r\n        THRESHOLD = _threshold;\r\n    }\r\n\r\n    function setReputationParameters(\r\n        uint256 _RepThreshold,\r\n        int256 _MaxVariation\r\n    ) public {\r\n        require(oracles.has(msg.sender), \"Not an oracle, cannot set parameters!\");\r\n        RepTHRESHOLD = _RepThreshold;\r\n        MaxVARIATION = _MaxVariation;\r\n    }\r\n\r\n    //emit event listened by python\r\n    function sendMessageToAntenna(string memory message)\r\n        public\r\n        returns (uint256)\r\n    {\r\n        // Generate random sender\r\n        randNonce++;\r\n        uint256 senderId = uint256(\r\n            keccak256(abi.encodePacked(now, msg.sender, randNonce))\r\n        ) % oraclesStored.length;\r\n        address sender = oraclesStored[senderId];\r\n        randNonce++;\r\n        uint256 id = uint256(\r\n            keccak256(abi.encodePacked(now, msg.sender, randNonce))\r\n        ) % modulus;\r\n        pendingRequests[id] = true;\r\n        emit SendMessageToAntennaEvent(sender,msg.sender, id, message);\r\n        return id;\r\n    }\r\n\r\n    //verify message sending\r\n    function verifyMessageSending(string memory message, uint256 status)\r\n        public\r\n    {\r\n        //to complete with cryptographic verification\r\n    }\r\n\r\n    //asking sensorValue and send to antenna\r\n    function askSensorValue(\r\n        address _callerAddress,\r\n        address _sensor_oracle_address\r\n    ) public {\r\n        require(oracles.has(msg.sender), \"Not an oracle!\");\r\n        require(\r\n            !pendingSensorRequests[msg.sender],\r\n            \"Previous request has not yet been processed!\"\r\n        );\r\n        //Signaling that a request has been made\r\n        pendingSensorRequests[msg.sender] = true;\r\n\r\n        //Saving request\r\n        Request memory satRequest = Request(msg.sender, _callerAddress);\r\n        requestSensorToRequest[_sensor_oracle_address].push(satRequest);\r\n        uint256 numRequests = requestSensorToRequest[_sensor_oracle_address]\r\n            .length;\r\n        emit NewSensorRequest(msg.sender, _sensor_oracle_address, numRequests);\r\n\r\n        if (numRequests == THRESHOLD) {\r\n            //ask for a measure\r\n            CallerContractInterface callerContractInstance;\r\n            callerContractInstance = CallerContractInterface(_callerAddress);\r\n            callerContractInstance.updateSensorValue(_sensor_oracle_address);\r\n\r\n            //Deleting pending request attached to sensor\r\n            satRequest.otherAddress = _sensor_oracle_address;\r\n            for (uint256 i = 0; i < numRequests; i++) {\r\n                emit DeleteSensorRequest(\r\n                    requestSensorToRequest[_sensor_oracle_address][i]\r\n                        .oracleAddress,\r\n                    _sensor_oracle_address,\r\n                    \"Deleting pendingRequests\"\r\n                );\r\n                delete pendingSensorRequests[requestSensorToRequest[_sensor_oracle_address][i]\r\n                    .oracleAddress];\r\n            }\r\n            //Deleting requests from pending list\r\n            delete requestSensorToRequest[_sensor_oracle_address];\r\n\r\n        }\r\n    }\r\n\r\n    //receiving the value\r\n    function receiveSensorValue(int256 _sensorValue, string memory _sensorType)\r\n        public\r\n        override\r\n    {\r\n        string memory value = strConcat(\r\n            \" updated value = \",\r\n            int2str(_sensorValue)\r\n        );\r\n        value = strConcat(_sensorType, value);\r\n        sendMessageToAntenna(value);\r\n    }\r\n\r\n    function int2str(int256 i) internal pure returns (string memory) {\r\n        if (i == 0) return \"0\";\r\n        bool negative = i < 0;\r\n        uint256 j = uint256(negative ? -i : i);\r\n        uint256 l = j; // Keep an unsigned copy\r\n        uint256 len;\r\n        while (j != 0) {\r\n            len++;\r\n            j /= 10;\r\n        }\r\n        if (negative) ++len; // Make room for '-' sign\r\n        bytes memory bstr = new bytes(len);\r\n        uint256 k = len - 1;\r\n        while (l != 0) {\r\n            bstr[k--] = bytes1(uint8(48 + (l % 10)));\r\n            l /= 10;\r\n        }\r\n        if (negative) {\r\n            // Prepend '-'\r\n            bstr[0] = \"-\";\r\n        }\r\n        return string(bstr);\r\n    }\r\n\r\n    function strConcat(string memory _a, string memory _b)\r\n        internal\r\n        pure\r\n        returns (string memory)\r\n    {\r\n        bytes memory _ba = bytes(_a);\r\n        bytes memory _bb = bytes(_b);\r\n        string memory ab = new string(_ba.length + _bb.length);\r\n        bytes memory bab = bytes(ab);\r\n        uint256 k = 0;\r\n        for (uint256 i = 0; i < _ba.length; i++) bab[k++] = _ba[i];\r\n        for (uint256 i = 0; i < _bb.length; i++) bab[k++] = _bb[i];\r\n        return string(bab);\r\n    }\r\n}\r\n",
  "sourcePath": "/home/rsx02/hyperledger-besu/SubSystem Blockchain/contracts/CommunicationOracle.sol",
  "compiler": {
    "name": "solc",
    "version": "0.6.3+commit.8dda9521.Emscripten.clang"
  },
  "schemaVersion": "3.4.1",
  "updatedAt": "2021-06-28T13:01:56.645Z",
  "networkType": "ethereum",
  "devdoc": {
    "methods": {}
  },
  "userdoc": {
    "methods": {}
  }
}