{
  "contractName": "SensorValueOracle",
  "abi": [
    {
      "inputs": [
        {
          "internalType": "address",
          "name": "_owner",
          "type": "address"
        }
      ],
      "stateMutability": "nonpayable",
      "type": "constructor"
    },
    {
      "anonymous": false,
      "inputs": [
        {
          "indexed": false,
          "internalType": "address",
          "name": "oracleAddress",
          "type": "address"
        }
      ],
      "name": "AddOracleEvent",
      "type": "event"
    },
    {
      "anonymous": false,
      "inputs": [
        {
          "indexed": false,
          "internalType": "address",
          "name": "callerAddress",
          "type": "address"
        },
        {
          "indexed": false,
          "internalType": "uint256",
          "name": "id",
          "type": "uint256"
        }
      ],
      "name": "GetLatestSensorValueEvent",
      "type": "event"
    },
    {
      "anonymous": false,
      "inputs": [
        {
          "indexed": false,
          "internalType": "address",
          "name": "oracleAddress",
          "type": "address"
        },
        {
          "indexed": false,
          "internalType": "string",
          "name": "reason",
          "type": "string"
        }
      ],
      "name": "RemoveOracleEvent",
      "type": "event"
    },
    {
      "anonymous": false,
      "inputs": [
        {
          "indexed": false,
          "internalType": "uint256",
          "name": "sensorValue",
          "type": "uint256"
        },
        {
          "indexed": false,
          "internalType": "address",
          "name": "callerAddress",
          "type": "address"
        }
      ],
      "name": "SetLatestSensorValueEvent",
      "type": "event"
    },
    {
      "anonymous": false,
      "inputs": [
        {
          "indexed": false,
          "internalType": "uint256",
          "name": "threshold",
          "type": "uint256"
        }
      ],
      "name": "SetThresholdEvent",
      "type": "event"
    },
    {
      "anonymous": false,
      "inputs": [
        {
          "indexed": false,
          "internalType": "address",
          "name": "oracleAddress",
          "type": "address"
        },
        {
          "indexed": false,
          "internalType": "uint256",
          "name": "computedSensorValue",
          "type": "uint256"
        },
        {
          "indexed": false,
          "internalType": "uint256",
          "name": "sensorValue",
          "type": "uint256"
        }
      ],
      "name": "VariationSurpassedEvent",
      "type": "event"
    },
    {
      "inputs": [
        {
          "internalType": "uint256",
          "name": "",
          "type": "uint256"
        },
        {
          "internalType": "uint256",
          "name": "",
          "type": "uint256"
        }
      ],
      "name": "requestIdToResponse",
      "outputs": [
        {
          "internalType": "address",
          "name": "oracleAddress",
          "type": "address"
        },
        {
          "internalType": "address",
          "name": "callerAddress",
          "type": "address"
        },
        {
          "internalType": "uint256",
          "name": "sensorValue",
          "type": "uint256"
        }
      ],
      "stateMutability": "view",
      "type": "function",
      "constant": true
    },
    {
      "inputs": [
        {
          "internalType": "address",
          "name": "_oracle",
          "type": "address"
        }
      ],
      "name": "addOracle",
      "outputs": [],
      "stateMutability": "nonpayable",
      "type": "function"
    },
    {
      "inputs": [],
      "name": "autoDestructOracle",
      "outputs": [],
      "stateMutability": "nonpayable",
      "type": "function"
    },
    {
      "inputs": [
        {
          "internalType": "uint256",
          "name": "_threshold",
          "type": "uint256"
        }
      ],
      "name": "setThreshold",
      "outputs": [],
      "stateMutability": "nonpayable",
      "type": "function"
    },
    {
      "inputs": [
        {
          "internalType": "uint256",
          "name": "_RepThreshold",
          "type": "uint256"
        },
        {
          "internalType": "uint256",
          "name": "_MaxVariation",
          "type": "uint256"
        }
      ],
      "name": "setReputationParameters",
      "outputs": [],
      "stateMutability": "nonpayable",
      "type": "function"
    },
    {
      "inputs": [],
      "name": "getLatestSensorValue",
      "outputs": [
        {
          "internalType": "uint256",
          "name": "",
          "type": "uint256"
        }
      ],
      "stateMutability": "nonpayable",
      "type": "function"
    },
    {
      "inputs": [
        {
          "internalType": "uint256",
          "name": "_sensorValue",
          "type": "uint256"
        },
        {
          "internalType": "address",
          "name": "_callerAddress",
          "type": "address"
        },
        {
          "internalType": "uint256",
          "name": "_id",
          "type": "uint256"
        }
      ],
      "name": "setLatestSensorValue",
      "outputs": [],
      "stateMutability": "nonpayable",
      "type": "function"
    }
  ],
  "bytecode": "0x608060405260006002556103e8600355600060045560006005556000600655600060085534801561002f57600080fd5b506040516114ed3803806114ed8339818101604052602081101561005257600080fd5b810190808051906020019092919050505061007b81600061008160201b6110171790919060201c565b506101c5565b600073ffffffffffffffffffffffffffffffffffffffff168173ffffffffffffffffffffffffffffffffffffffff1614156100bb57600080fd5b6100cb828261013360201b60201c565b156100d557600080fd5b60018260000160008373ffffffffffffffffffffffffffffffffffffffff1673ffffffffffffffffffffffffffffffffffffffff16815260200190815260200160002060006101000a81548160ff0219169083151502179055505050565b60008073ffffffffffffffffffffffffffffffffffffffff168273ffffffffffffffffffffffffffffffffffffffff16141561016e57600080fd5b8260000160008373ffffffffffffffffffffffffffffffffffffffff1673ffffffffffffffffffffffffffffffffffffffff16815260200190815260200160002060009054906101000a900460ff16905092915050565b611319806101d46000396000f3fe608060405234801561001057600080fd5b506004361061007d5760003560e01c80639c78f7601161005b5780639c78f76014610180578063a9c42465146101d8578063d12bcffb14610210578063df5dd1a51461021a5761007d565b80633b6f1566146100825780638bbc085a146100a0578063960bfe0414610152575b600080fd5b61008a61025e565b6040518082815260200191505060405180910390f35b6100d6600480360360408110156100b657600080fd5b81019080803590602001909291908035906020019092919050505061038a565b604051808473ffffffffffffffffffffffffffffffffffffffff1673ffffffffffffffffffffffffffffffffffffffff1681526020018373ffffffffffffffffffffffffffffffffffffffff1673ffffffffffffffffffffffffffffffffffffffff168152602001828152602001935050505060405180910390f35b61017e6004803603602081101561016857600080fd5b810190808035906020019092919050505061040e565b005b6101d66004803603606081101561019657600080fd5b8101908080359060200190929190803573ffffffffffffffffffffffffffffffffffffffff16906020019092919080359060200190929190505050610418565b005b61020e600480360360408110156101ee57600080fd5b8101908080359060200190929190803590602001909291905050506109a6565b005b6102186109b8565b005b61025c6004803603602081101561023057600080fd5b81019080803573ffffffffffffffffffffffffffffffffffffffff1690602001909291905050506109dc565b005b600060026000815480929190600101919050555060006003544233600254604051602001808481526020018373ffffffffffffffffffffffffffffffffffffffff1673ffffffffffffffffffffffffffffffffffffffff1660601b815260140182815260200193505050506040516020818303038152906040528051906020012060001c816102e957fe5b06905060016009600083815260200190815260200160002060006101000a81548160ff0219169083151502179055507fe3acea5abf802b4b2c656b94b0827dff1b52a9f388b65cfb0628c918a81d65763382604051808373ffffffffffffffffffffffffffffffffffffffff1673ffffffffffffffffffffffffffffffffffffffff1681526020018281526020019250505060405180910390a18091505090565b600a60205281600052604060002081815481106103a357fe5b9060005260206000209060030201600091509150508060000160009054906101000a900473ffffffffffffffffffffffffffffffffffffffff16908060010160009054906101000a900473ffffffffffffffffffffffffffffffffffffffff16908060020154905083565b8060058190555050565b61042c336001610ad190919063ffffffff16565b61049e576040517f08c379a000000000000000000000000000000000000000000000000000000000815260040180806020018281038252600e8152602001807f4e6f7420616e206f7261636c652100000000000000000000000000000000000081525060200191505060405180910390fd5b6009600082815260200190815260200160002060009054906101000a900460ff16610514576040517f08c379a00000000000000000000000000000000000000000000000000000000081526004018080602001828103825260278152602001806112bd6027913960400191505060405180910390fd5b61051c611185565b60405180606001604052803373ffffffffffffffffffffffffffffffffffffffff1681526020018473ffffffffffffffffffffffffffffffffffffffff168152602001858152509050600a600083815260200190815260200160002081908060018154018082558091505060019003906000526020600020906003020160009091909190915060008201518160000160006101000a81548173ffffffffffffffffffffffffffffffffffffffff021916908373ffffffffffffffffffffffffffffffffffffffff16021790555060208201518160010160006101000a81548173ffffffffffffffffffffffffffffffffffffffff021916908373ffffffffffffffffffffffffffffffffffffffff1602179055506040820151816002015550506000600a600084815260200190815260200160002080549050905060055481141561099f576000809050600080905060008090505b600a6000878152602001908152602001600020805490508110156107065781600a600088815260200190815260200160002082815481106106ae57fe5b90600052602060002090600302016002015411156106f957600a600087815260200190815260200160002081815481106106e457fe5b90600052602060002090600302016002015491505b8080600101915050610671565b5060606001820160405190808252806020026020018201604052801561073b5781602001602082028036833780820191505090505b5090506000600a600088815260200190815260200160002060008154811061075f57fe5b906000526020600020906003020160020154905060008090505b600a6000898152602001908152602001600020805490508110156108d1576107ed600184600a60008c815260200190815260200160002084815481106107bb57fe5b906000526020600020906003020160020154815181106107d757fe5b6020026020010151610b6390919063ffffffff16565b83600a60008b8152602001908152602001600020838154811061080c57fe5b9060005260206000209060030201600201548151811061082857fe5b60200260200101818152505082828151811061084057fe5b602002602001015183600a60008b8152602001908152602001600020838154811061086757fe5b9060005260206000209060030201600201548151811061088357fe5b602002602001015111156108c457600a600089815260200190815260200160002081815481106108af57fe5b90600052602060002090600302016002015491505b8080600101915050610779565b508093506108df8785610b7f565b6009600088815260200190815260200160002060006101000a81549060ff0219169055600a6000888152602001908152602001600020600061092191906111d2565b60008890508073ffffffffffffffffffffffffffffffffffffffff1663b5d73ba4868a6040518363ffffffff1660e01b81526004018083815260200182815260200192505050600060405180830381600087803b15801561098157600080fd5b505af1158015610995573d6000803e3d6000fd5b5050505050505050505b5050505050565b81600681905550806008819055505050565b6109da336040518060600160405280602b815260200161126c602b9139610e53565b565b6109f0816001610ad190919063ffffffff16565b15610a63576040517f08c379a00000000000000000000000000000000000000000000000000000000081526004018080602001828103825260128152602001807f416c726561647920616e206f7261636c6521000000000000000000000000000081525060200191505060405180910390fd5b610a7781600161101790919063ffffffff16565b6000600760008373ffffffffffffffffffffffffffffffffffffffff1673ffffffffffffffffffffffffffffffffffffffff1681526020019081526020016000208190555060046000815480929190600101919050555050565b60008073ffffffffffffffffffffffffffffffffffffffff168273ffffffffffffffffffffffffffffffffffffffff161415610b0c57600080fd5b8260000160008373ffffffffffffffffffffffffffffffffffffffff1673ffffffffffffffffffffffffffffffffffffffff16815260200190815260200160002060009054906101000a900460ff16905092915050565b600080828401905083811015610b7557fe5b8091505092915050565b6000610b9660085483610b6390919063ffffffff16565b90506000610baf600854846110c390919063ffffffff16565b905060008090505b600a600086815260200190815260200160002080549050811015610e4c576000600a60008781526020019081526020016000208281548110610bf557fe5b906000526020600020906003020160000160009054906101000a900473ffffffffffffffffffffffffffffffffffffffff16905083600a60008881526020019081526020016000208381548110610c4857fe5b9060005260206000209060030201600201541180610c94575082600a60008881526020019081526020016000208381548110610c8057fe5b906000526020600020906003020160020154105b15610dd257610cec6001600760008473ffffffffffffffffffffffffffffffffffffffff1673ffffffffffffffffffffffffffffffffffffffff16815260200190815260200160002054610b6390919063ffffffff16565b600760008373ffffffffffffffffffffffffffffffffffffffff1673ffffffffffffffffffffffffffffffffffffffff168152602001908152602001600020819055507fca41b3eade9323b631dc005c4de347dc1144826c34f6f7273fc0448c1c1630878186600a60008a81526020019081526020016000208581548110610d7057fe5b906000526020600020906003020160020154604051808473ffffffffffffffffffffffffffffffffffffffff1673ffffffffffffffffffffffffffffffffffffffff168152602001838152602001828152602001935050505060405180910390a15b600654600760008373ffffffffffffffffffffffffffffffffffffffff1673ffffffffffffffffffffffffffffffffffffffff168152602001908152602001600020541115610e3e57610e3d8160405180606001604052806026815260200161129760269139610e53565b5b508080600101915050610bb7565b5050505050565b610e67826001610ad190919063ffffffff16565b610ed9576040517f08c379a000000000000000000000000000000000000000000000000000000000815260040180806020018281038252600e8152602001807f4e6f7420616e206f7261636c652100000000000000000000000000000000000081525060200191505060405180910390fd5b610eed8260016110da90919063ffffffff16565b600760008373ffffffffffffffffffffffffffffffffffffffff1673ffffffffffffffffffffffffffffffffffffffff16815260200190815260200160002060009055600460008154809291906001900391905055507fe245a3c31307c058d22017c6a88c565a2db0132fc4bb9528c70fdff4008f594b8282604051808373ffffffffffffffffffffffffffffffffffffffff1673ffffffffffffffffffffffffffffffffffffffff16815260200180602001828103825283818151815260200191508051906020019080838360005b83811015610fd8578082015181840152602081019050610fbd565b50505050905090810190601f1680156110055780820380516001836020036101000a031916815260200191505b50935050505060405180910390a15050565b600073ffffffffffffffffffffffffffffffffffffffff168173ffffffffffffffffffffffffffffffffffffffff16141561105157600080fd5b61105b8282610ad1565b1561106557600080fd5b60018260000160008373ffffffffffffffffffffffffffffffffffffffff1673ffffffffffffffffffffffffffffffffffffffff16815260200190815260200160002060006101000a81548160ff0219169083151502179055505050565b6000828211156110cf57fe5b818303905092915050565b600073ffffffffffffffffffffffffffffffffffffffff168173ffffffffffffffffffffffffffffffffffffffff16141561111457600080fd5b61111e8282610ad1565b61112757600080fd5b60008260000160008373ffffffffffffffffffffffffffffffffffffffff1673ffffffffffffffffffffffffffffffffffffffff16815260200190815260200160002060006101000a81548160ff0219169083151502179055505050565b6040518060600160405280600073ffffffffffffffffffffffffffffffffffffffff168152602001600073ffffffffffffffffffffffffffffffffffffffff168152602001600081525090565b50805460008255600302906000526020600020908101906111f391906111f6565b50565b61126891905b8082111561126457600080820160006101000a81549073ffffffffffffffffffffffffffffffffffffffff02191690556001820160006101000a81549073ffffffffffffffffffffffffffffffffffffffff02191690556002820160009055506003016111fc565b5090565b9056fe53656e736f722069732073656c662d72656d6f76696e672066726f6d207468652073756273797374656d2153656e736f72207375727061737365642072657075746174696f6e207468726573686f6c6421546869732072657175657374206973206e6f7420696e206d792070656e64696e67206c6973742ea26469706673582212206f46413e0166fe46842da5864b4d169f02c8aa0937f1554c60c2f98dc798ccaa64736f6c63430006030033",
  "source": "pragma solidity 0.6.3;\r\nimport \"./Roles.sol\";\r\nimport \"./SafeMath.sol\";\r\nimport \"./CallerContractInterface.sol\";\r\nimport \"./CallerContract.sol\";\r\nimport \"./SensorValueOracleInterface.sol\";\r\n\r\ncontract SensorValueOracle is SensorValueOracleInterface {\r\n    using Roles for Roles.Role;\r\n    Roles.Role private owners;\r\n    Roles.Role private oracles;\r\n    using SafeMath for uint256;\r\n    uint256 private randNonce = 0;\r\n    uint256 private modulus = 1000;\r\n    uint256 private numOracles = 0;\r\n    uint256 private THRESHOLD = 0;\r\n\r\n    //added this\r\n    uint256 private RepTHRESHOLD = 0;\r\n    //added this\r\n    mapping(address => uint256) private ReputationRecord;\r\n    //added this\r\n    uint256 private MaxVARIATION = 0;\r\n\r\n    mapping(uint256 => bool) pendingRequests;\r\n    struct Response {\r\n        address oracleAddress;\r\n        address callerAddress;\r\n        uint256 sensorValue;\r\n    }\r\n    mapping(uint256 => Response[]) public requestIdToResponse;\r\n    event GetLatestSensorValueEvent(address callerAddress, uint256 id);\r\n    event SetLatestSensorValueEvent(uint256 sensorValue, address callerAddress);\r\n    event AddOracleEvent(address oracleAddress);\r\n    event RemoveOracleEvent(address oracleAddress, string reason);\r\n    event SetThresholdEvent(uint256 threshold);\r\n    //added this\r\n    event VariationSurpassedEvent(address oracleAddress, uint256 computedSensorValue, uint256 sensorValue);\r\n\r\n    constructor(address _owner) public {\r\n        owners.add(_owner);\r\n    }\r\n\r\n    function addOracle(address _oracle) public {\r\n        //require(owners.has(msg.sender), \"Not an owner!\");\r\n        require(!oracles.has(_oracle), \"Already an oracle!\");\r\n        oracles.add(_oracle);\r\n\r\n        //added this\r\n        ReputationRecord[_oracle] = 0;\r\n\r\n        numOracles++;\r\n        //emit AddOracleEvent(_oracle);\r\n    }\r\n\r\n    //changed here\r\n    function removeOracle(address _oracle, string memory _reason) private {\r\n        require(oracles.has(_oracle), \"Not an oracle!\");\r\n        //require(numOracles > 1, \"Do not remove the last oracle!\");\r\n        oracles.remove(_oracle);\r\n\r\n        //added this\r\n        delete ReputationRecord[_oracle];\r\n\r\n        numOracles--;\r\n        emit RemoveOracleEvent(_oracle, _reason);\r\n    }\r\n\r\n    //added this\r\n    function autoDestructOracle() public {\r\n        removeOracle(msg.sender,\"Sensor is self-removing from the subsystem!\");\r\n    }\r\n\r\n    //added this\r\n    function updateOracleSensorsList(uint256 _id, uint256 _computedSensorValue) private {\r\n        uint256 max = _computedSensorValue.add(MaxVARIATION);\r\n        uint256 min = _computedSensorValue.sub(MaxVARIATION);\r\n        for (uint256 f = 0; f < requestIdToResponse[_id].length; f++) {\r\n            address oracle = requestIdToResponse[_id][f].oracleAddress;\r\n            // Update Reputation Record\r\n            if ((requestIdToResponse[_id][f].sensorValue > max) || (requestIdToResponse[_id][f].sensorValue < min)) {\r\n                ReputationRecord[oracle] = ReputationRecord[oracle].add(1);\r\n                emit VariationSurpassedEvent(oracle, _computedSensorValue, requestIdToResponse[_id][f].sensorValue);\r\n            }\r\n            // Update OracleSensorsList\r\n            if (ReputationRecord[oracle] > RepTHRESHOLD) {\r\n                removeOracle(oracle, \"Sensor surpassed reputation threshold!\");\r\n            }\r\n        }\r\n    }\r\n\r\n    function setThreshold(uint256 _threshold) public {\r\n        //require(owners.has(msg.sender), \"Not an owner!\");\r\n        THRESHOLD = _threshold;\r\n        //    emit SetThresholdEvent(THRESHOLD);\r\n    }\r\n\r\n    //added this\r\n    function setReputationParameters(uint256 _RepThreshold, uint256 _MaxVariation) public {\r\n        //require(owners.has(msg.sender), \"Not an owner!\");\r\n        RepTHRESHOLD = _RepThreshold;\r\n        MaxVARIATION = _MaxVariation;\r\n        //    emit SetReputationParametersEvent(RepTHRESHOLD, MaxVARIATION);\r\n    }\r\n\r\n    function getLatestSensorValue() public override returns (uint256) {  \r\n        randNonce++;\r\n        uint256 id = uint256(\r\n            keccak256(abi.encodePacked(now, msg.sender, randNonce))\r\n        ) % modulus;\r\n        pendingRequests[id] = true;\r\n        emit GetLatestSensorValueEvent(msg.sender, id);\r\n        return id;\r\n    }\r\n\r\n    function setLatestSensorValue(\r\n        uint256 _sensorValue,\r\n        address _callerAddress,\r\n        uint256 _id\r\n    ) public {\r\n        require(oracles.has(msg.sender), \"Not an oracle!\");\r\n        require(\r\n            pendingRequests[_id],\r\n            \"This request is not in my pending list.\"\r\n        );\r\n        Response memory resp;\r\n        resp = Response(msg.sender, _callerAddress, _sensorValue);\r\n        requestIdToResponse[_id].push(resp);\r\n        uint256 numResponses = requestIdToResponse[_id].length;\r\n        if (numResponses == THRESHOLD) {\r\n            uint256 computedSensorValue = 0;\r\n            //added this\r\n            uint maxIndex = 0;\r\n            //Initializing counting vector\r\n            for (uint256 f = 0; f < requestIdToResponse[_id].length; f++) {\r\n                if (requestIdToResponse[_id][f].sensorValue > maxIndex) {\r\n                    maxIndex = requestIdToResponse[_id][f].sensorValue;\r\n                }\r\n            }\r\n            uint256[] memory counting = new uint256[](maxIndex+1);\r\n            uint mode = requestIdToResponse[_id][0].sensorValue;\r\n            for (uint256 f = 0; f < requestIdToResponse[_id].length; f++) {\r\n                counting[requestIdToResponse[_id][f].sensorValue] = counting[requestIdToResponse[_id][f].sensorValue].add(1);\r\n                if (counting[requestIdToResponse[_id][f].sensorValue] > counting[mode]) {\r\n                    mode = requestIdToResponse[_id][f].sensorValue;\r\n                }\r\n            }\r\n            computedSensorValue = mode;\r\n            //added this\r\n            updateOracleSensorsList(_id, computedSensorValue);\r\n            delete pendingRequests[_id];\r\n            delete requestIdToResponse[_id];\r\n            CallerContractInterface callerContractInstance;\r\n            callerContractInstance = CallerContractInterface(_callerAddress);\r\n            callerContractInstance.callback(computedSensorValue, _id);\r\n            //emit SetLatestSensorValueEvent(computedSensorValue, _callerAddress);\r\n        }\r\n    }\r\n\r\n\r\n}\r\n",
  "sourcePath": "/home/rsx02/hyperledger-besu/2TestCryptoZombies/contracts/SensorValueOracle.sol",
  "compiler": {
    "name": "solc",
    "version": "0.6.3+commit.8dda9521.Emscripten.clang"
  },
  "schemaVersion": "3.4.1",
  "updatedAt": "2021-06-17T05:55:21.115Z",
  "networkType": "ethereum",
  "devdoc": {
    "methods": {}
  },
  "userdoc": {
    "methods": {}
  }
}