{
  "contractName": "SymmetricSensorOracle",
  "abi": [
    {
      "inputs": [
        {
          "internalType": "address",
          "name": "_owner",
          "type": "address"
        }
      ],
      "stateMutability": "nonpayable",
      "type": "constructor"
    },
    {
      "anonymous": false,
      "inputs": [
        {
          "indexed": false,
          "internalType": "address",
          "name": "oracleAddress",
          "type": "address"
        }
      ],
      "name": "AddOracleEvent",
      "type": "event"
    },
    {
      "anonymous": false,
      "inputs": [
        {
          "indexed": false,
          "internalType": "address",
          "name": "callerAddress",
          "type": "address"
        },
        {
          "indexed": false,
          "internalType": "uint256",
          "name": "id",
          "type": "uint256"
        }
      ],
      "name": "GetLatestSensorValueEvent",
      "type": "event"
    },
    {
      "anonymous": false,
      "inputs": [
        {
          "indexed": false,
          "internalType": "address",
          "name": "oracleAddress",
          "type": "address"
        },
        {
          "indexed": false,
          "internalType": "string",
          "name": "reason",
          "type": "string"
        }
      ],
      "name": "RemoveOracleEvent",
      "type": "event"
    },
    {
      "anonymous": false,
      "inputs": [
        {
          "indexed": false,
          "internalType": "int256",
          "name": "sensorValue",
          "type": "int256"
        },
        {
          "indexed": false,
          "internalType": "address",
          "name": "callerAddress",
          "type": "address"
        }
      ],
      "name": "SetLatestSensorValueEvent",
      "type": "event"
    },
    {
      "anonymous": false,
      "inputs": [
        {
          "indexed": false,
          "internalType": "uint256",
          "name": "threshold",
          "type": "uint256"
        }
      ],
      "name": "SetThresholdEvent",
      "type": "event"
    },
    {
      "anonymous": false,
      "inputs": [
        {
          "indexed": false,
          "internalType": "address",
          "name": "oracleAddress",
          "type": "address"
        },
        {
          "indexed": false,
          "internalType": "int256",
          "name": "computedSensorValue",
          "type": "int256"
        },
        {
          "indexed": false,
          "internalType": "int256",
          "name": "sensorValue",
          "type": "int256"
        }
      ],
      "name": "VariationSurpassedEvent",
      "type": "event"
    },
    {
      "inputs": [
        {
          "internalType": "uint256",
          "name": "",
          "type": "uint256"
        },
        {
          "internalType": "uint256",
          "name": "",
          "type": "uint256"
        }
      ],
      "name": "requestIdToResponse",
      "outputs": [
        {
          "internalType": "address",
          "name": "oracleAddress",
          "type": "address"
        },
        {
          "internalType": "address",
          "name": "callerAddress",
          "type": "address"
        },
        {
          "internalType": "int256",
          "name": "sensorValue",
          "type": "int256"
        }
      ],
      "stateMutability": "view",
      "type": "function",
      "constant": true
    },
    {
      "inputs": [
        {
          "internalType": "address",
          "name": "_oracle",
          "type": "address"
        }
      ],
      "name": "addOracle",
      "outputs": [],
      "stateMutability": "nonpayable",
      "type": "function"
    },
    {
      "inputs": [],
      "name": "autoDestructOracle",
      "outputs": [],
      "stateMutability": "nonpayable",
      "type": "function"
    },
    {
      "inputs": [
        {
          "internalType": "uint256",
          "name": "_threshold",
          "type": "uint256"
        }
      ],
      "name": "setThreshold",
      "outputs": [],
      "stateMutability": "nonpayable",
      "type": "function"
    },
    {
      "inputs": [
        {
          "internalType": "uint256",
          "name": "_RepThreshold",
          "type": "uint256"
        },
        {
          "internalType": "int256",
          "name": "_MaxVariation",
          "type": "int256"
        }
      ],
      "name": "setReputationParameters",
      "outputs": [],
      "stateMutability": "nonpayable",
      "type": "function"
    },
    {
      "inputs": [],
      "name": "getLatestSensorValue",
      "outputs": [
        {
          "internalType": "uint256",
          "name": "",
          "type": "uint256"
        }
      ],
      "stateMutability": "nonpayable",
      "type": "function"
    },
    {
      "inputs": [
        {
          "internalType": "int256",
          "name": "_sensorValue",
          "type": "int256"
        },
        {
          "internalType": "address",
          "name": "_callerAddress",
          "type": "address"
        },
        {
          "internalType": "uint256",
          "name": "_id",
          "type": "uint256"
        }
      ],
      "name": "setLatestSensorValue",
      "outputs": [],
      "stateMutability": "nonpayable",
      "type": "function"
    }
  ],
  "bytecode": "0x608060405260006002556103e8600355600060045560006005556000600655600060085534801561002f57600080fd5b506040516116223803806116228339818101604052602081101561005257600080fd5b810190808051906020019092919050505061007b8160016100d860201b610e211790919060201c565b6000600760008373ffffffffffffffffffffffffffffffffffffffff1673ffffffffffffffffffffffffffffffffffffffff168152602001908152602001600020819055506004600081548092919060010191905055505061021c565b600073ffffffffffffffffffffffffffffffffffffffff168173ffffffffffffffffffffffffffffffffffffffff16141561011257600080fd5b610122828261018a60201b60201c565b1561012c57600080fd5b60018260000160008373ffffffffffffffffffffffffffffffffffffffff1673ffffffffffffffffffffffffffffffffffffffff16815260200190815260200160002060006101000a81548160ff0219169083151502179055505050565b60008073ffffffffffffffffffffffffffffffffffffffff168273ffffffffffffffffffffffffffffffffffffffff1614156101c557600080fd5b8260000160008373ffffffffffffffffffffffffffffffffffffffff1673ffffffffffffffffffffffffffffffffffffffff16815260200190815260200160002060009054906101000a900460ff16905092915050565b6113f78061022b6000396000f3fe608060405234801561001057600080fd5b506004361061007d5760003560e01c80639f9ce7d51161005b5780639f9ce7d514610180578063d12bcffb146101b8578063df5dd1a5146101c2578063ea6bd183146102065761007d565b80633b6f1566146100825780638bbc085a146100a0578063960bfe0414610152575b600080fd5b61008a61025e565b6040518082815260200191505060405180910390f35b6100d6600480360360408110156100b657600080fd5b81019080803590602001909291908035906020019092919050505061038a565b604051808473ffffffffffffffffffffffffffffffffffffffff1673ffffffffffffffffffffffffffffffffffffffff1681526020018373ffffffffffffffffffffffffffffffffffffffff1673ffffffffffffffffffffffffffffffffffffffff168152602001828152602001935050505060405180910390f35b61017e6004803603602081101561016857600080fd5b810190808035906020019092919050505061040e565b005b6101b66004803603604081101561019657600080fd5b810190808035906020019092919080359060200190929190505050610481565b005b6101c06104fc565b005b610204600480360360208110156101d857600080fd5b81019080803573ffffffffffffffffffffffffffffffffffffffff169060200190929190505050610520565b005b61025c6004803603606081101561021c57600080fd5b8101908080359060200190929190803573ffffffffffffffffffffffffffffffffffffffff1690602001909291908035906020019092919050505061067e565b005b600060026000815480929190600101919050555060006003544233600254604051602001808481526020018373ffffffffffffffffffffffffffffffffffffffff1673ffffffffffffffffffffffffffffffffffffffff1660601b815260140182815260200193505050506040516020818303038152906040528051906020012060001c816102e957fe5b06905060016009600083815260200190815260200160002060006101000a81548160ff0219169083151502179055507fe3acea5abf802b4b2c656b94b0827dff1b52a9f388b65cfb0628c918a81d65763382604051808373ffffffffffffffffffffffffffffffffffffffff1673ffffffffffffffffffffffffffffffffffffffff1681526020018281526020019250505060405180910390a18091505090565b600a60205281600052604060002081815481106103a357fe5b9060005260206000209060030201600091509150508060000160009054906101000a900473ffffffffffffffffffffffffffffffffffffffff16908060010160009054906101000a900473ffffffffffffffffffffffffffffffffffffffff16908060020154905083565b610422336001610bcb90919063ffffffff16565b610477576040517f08c379a000000000000000000000000000000000000000000000000000000000815260040180806020018281038252602581526020018061132e6025913960400191505060405180910390fd5b8060058190555050565b610495336001610bcb90919063ffffffff16565b6104ea576040517f08c379a000000000000000000000000000000000000000000000000000000000815260040180806020018281038252602581526020018061132e6025913960400191505060405180910390fd5b81600681905550806008819055505050565b61051e336040518060600160405280602b8152602001611303602b9139610c5d565b565b610534336001610bcb90919063ffffffff16565b610589576040517f08c379a00000000000000000000000000000000000000000000000000000000081526004018080602001828103825260228152602001806113536022913960400191505060405180910390fd5b61059d816001610bcb90919063ffffffff16565b15610610576040517f08c379a00000000000000000000000000000000000000000000000000000000081526004018080602001828103825260128152602001807f416c726561647920616e206f7261636c6521000000000000000000000000000081525060200191505060405180910390fd5b610624816001610e2190919063ffffffff16565b6000600760008373ffffffffffffffffffffffffffffffffffffffff1673ffffffffffffffffffffffffffffffffffffffff1681526020019081526020016000208190555060046000815480929190600101919050555050565b610692336001610bcb90919063ffffffff16565b610704576040517f08c379a000000000000000000000000000000000000000000000000000000000815260040180806020018281038252600e8152602001807f4e6f7420616e206f7261636c652100000000000000000000000000000000000081525060200191505060405180910390fd5b6009600082815260200190815260200160002060009054906101000a900460ff1661077a576040517f08c379a000000000000000000000000000000000000000000000000000000000815260040180806020018281038252602781526020018061139b6027913960400191505060405180910390fd5b61078261121c565b60405180606001604052803373ffffffffffffffffffffffffffffffffffffffff1681526020018473ffffffffffffffffffffffffffffffffffffffff168152602001858152509050600a600083815260200190815260200160002081908060018154018082558091505060019003906000526020600020906003020160009091909190915060008201518160000160006101000a81548173ffffffffffffffffffffffffffffffffffffffff021916908373ffffffffffffffffffffffffffffffffffffffff16021790555060208201518160010160006101000a81548173ffffffffffffffffffffffffffffffffffffffff021916908373ffffffffffffffffffffffffffffffffffffffff1602179055506040820151816002015550506000600a6000848152602001908152602001600020805490509050600554811415610bc4576000600a60008581526020019081526020016000206000815481106108e857fe5b906000526020600020906003020160020154905060008090505b600a600086815260200190815260200160002080549050811015610975576000600b6000600a6000898152602001908152602001600020848154811061094457fe5b9060005260206000209060030201600201548152602001908152602001600020819055508080600101915050610902565b5060008090505b600a600086815260200190815260200160002080549050811015610ac3576001600b6000600a600089815260200190815260200160002084815481106109be57fe5b90600052602060002090600302016002015481526020019081526020016000205401600b6000600a60008981526020019081526020016000208481548110610a0257fe5b906000526020600020906003020160020154815260200190815260200160002081905550600b600083815260200190815260200160002054600b6000600a60008981526020019081526020016000208481548110610a5c57fe5b9060005260206000209060030201600201548152602001908152602001600020541315610ab657600a60008681526020019081526020016000208181548110610aa157fe5b90600052602060002090600302016002015491505b808060010191505061097c565b50610ace8482610ecd565b6009600085815260200190815260200160002060006101000a81549060ff0219169055600a60008581526020019081526020016000206000610b109190611269565b60008590508073ffffffffffffffffffffffffffffffffffffffff16637e87b5e383876040518363ffffffff1660e01b815260040180838152602001828152602001806020018281038252600b8152602001807f74656d70657261747572650000000000000000000000000000000000000000008152506020019350505050600060405180830381600087803b158015610ba957600080fd5b505af1158015610bbd573d6000803e3d6000fd5b5050505050505b5050505050565b60008073ffffffffffffffffffffffffffffffffffffffff168273ffffffffffffffffffffffffffffffffffffffff161415610c0657600080fd5b8260000160008373ffffffffffffffffffffffffffffffffffffffff1673ffffffffffffffffffffffffffffffffffffffff16815260200190815260200160002060009054906101000a900460ff16905092915050565b610c71826001610bcb90919063ffffffff16565b610ce3576040517f08c379a000000000000000000000000000000000000000000000000000000000815260040180806020018281038252600e8152602001807f4e6f7420616e206f7261636c652100000000000000000000000000000000000081525060200191505060405180910390fd5b610cf782600161117190919063ffffffff16565b600760008373ffffffffffffffffffffffffffffffffffffffff1673ffffffffffffffffffffffffffffffffffffffff16815260200190815260200160002060009055600460008154809291906001900391905055507fe245a3c31307c058d22017c6a88c565a2db0132fc4bb9528c70fdff4008f594b8282604051808373ffffffffffffffffffffffffffffffffffffffff1673ffffffffffffffffffffffffffffffffffffffff16815260200180602001828103825283818151815260200191508051906020019080838360005b83811015610de2578082015181840152602081019050610dc7565b50505050905090810190601f168015610e0f5780820380516001836020036101000a031916815260200191505b50935050505060405180910390a15050565b600073ffffffffffffffffffffffffffffffffffffffff168173ffffffffffffffffffffffffffffffffffffffff161415610e5b57600080fd5b610e658282610bcb565b15610e6f57600080fd5b60018260000160008373ffffffffffffffffffffffffffffffffffffffff1673ffffffffffffffffffffffffffffffffffffffff16815260200190815260200160002060006101000a81548160ff0219169083151502179055505050565b60006008548201905060006008548303905060008090505b600a60008681526020019081526020016000208054905081101561116a576000600a60008781526020019081526020016000208281548110610f2357fe5b906000526020600020906003020160000160009054906101000a900473ffffffffffffffffffffffffffffffffffffffff16905083600a60008881526020019081526020016000208381548110610f7657fe5b9060005260206000209060030201600201541380610fc2575082600a60008881526020019081526020016000208381548110610fae57fe5b906000526020600020906003020160020154125b156110f0576001600760008373ffffffffffffffffffffffffffffffffffffffff1673ffffffffffffffffffffffffffffffffffffffff1681526020019081526020016000205401600760008373ffffffffffffffffffffffffffffffffffffffff1673ffffffffffffffffffffffffffffffffffffffff168152602001908152602001600020819055507fb6f3cc50f07b24f7fd9987dd6228e78d7b9d00ee34ba9c2518eed97e36afb1ff8186600a60008a8152602001908152602001600020858154811061108e57fe5b906000526020600020906003020160020154604051808473ffffffffffffffffffffffffffffffffffffffff1673ffffffffffffffffffffffffffffffffffffffff168152602001838152602001828152602001935050505060405180910390a15b600654600760008373ffffffffffffffffffffffffffffffffffffffff1673ffffffffffffffffffffffffffffffffffffffff16815260200190815260200160002054111561115c5761115b8160405180606001604052806026815260200161137560269139610c5d565b5b508080600101915050610ee5565b5050505050565b600073ffffffffffffffffffffffffffffffffffffffff168173ffffffffffffffffffffffffffffffffffffffff1614156111ab57600080fd5b6111b58282610bcb565b6111be57600080fd5b60008260000160008373ffffffffffffffffffffffffffffffffffffffff1673ffffffffffffffffffffffffffffffffffffffff16815260200190815260200160002060006101000a81548160ff0219169083151502179055505050565b6040518060600160405280600073ffffffffffffffffffffffffffffffffffffffff168152602001600073ffffffffffffffffffffffffffffffffffffffff168152602001600081525090565b508054600082556003029060005260206000209081019061128a919061128d565b50565b6112ff91905b808211156112fb57600080820160006101000a81549073ffffffffffffffffffffffffffffffffffffffff02191690556001820160006101000a81549073ffffffffffffffffffffffffffffffffffffffff0219169055600282016000905550600301611293565b5090565b9056fe53656e736f722069732073656c662d72656d6f76696e672066726f6d207468652073756273797374656d214e6f7420616e206f7261636c652c2063616e6e6f742073657420706172616d6574657273214e6f7420616e206f7261636c652c2063616e6e6f7420616464206f7261636c65732153656e736f72207375727061737365642072657075746174696f6e207468726573686f6c6421546869732072657175657374206973206e6f7420696e206d792070656e64696e67206c6973742ea2646970667358221220a72e7ce2ae8cf181be97d439866be993bb8b5155470ee47cd143d201e7fae9dd64736f6c63430006030033",
  "source": "pragma solidity 0.6.3;\r\nimport \"./Roles.sol\";\r\nimport \"./SafeMath.sol\";\r\nimport \"./CallerContractInterface.sol\";\r\nimport \"./CallerContract.sol\";\r\nimport \"./SensorValueOracleInterface.sol\";\r\n\r\ncontract SymmetricSensorOracle is SensorValueOracleInterface {\r\n    using Roles for Roles.Role;\r\n    Roles.Role private owners;\r\n    Roles.Role private oracles;\r\n    using SafeMath for uint256;\r\n    uint256 private randNonce = 0;\r\n    uint256 private modulus = 1000;\r\n    uint256 private numOracles = 0;\r\n    uint256 private THRESHOLD = 0;\r\n    uint256 private RepTHRESHOLD = 0;\r\n    mapping(address => uint256) private ReputationRecord;\r\n    int256 private MaxVARIATION = 0;\r\n\r\n    mapping(uint256 => bool) pendingRequests;\r\n    struct Response {\r\n        address oracleAddress;\r\n        address callerAddress;\r\n        int256 sensorValue;\r\n    }\r\n    mapping(uint256 => Response[]) public requestIdToResponse;\r\n    event GetLatestSensorValueEvent(address callerAddress, uint256 id);\r\n    event SetLatestSensorValueEvent(int256 sensorValue, address callerAddress);\r\n    event AddOracleEvent(address oracleAddress);\r\n    event RemoveOracleEvent(address oracleAddress, string reason);\r\n    event SetThresholdEvent(uint256 threshold);\r\n    event VariationSurpassedEvent(\r\n        address oracleAddress,\r\n        int256 computedSensorValue,\r\n        int256 sensorValue\r\n    );\r\n    mapping(int256 => int256) counting;\r\n\r\n    constructor(address _owner) public {\r\n        oracles.add(_owner);\r\n        ReputationRecord[_owner] = 0;\r\n        numOracles++;\r\n    }\r\n\r\n    function addOracle(address _oracle) public {\r\n        require(oracles.has(msg.sender), \"Not an oracle, cannot add oracles!\");\r\n        require(!oracles.has(_oracle), \"Already an oracle!\");\r\n        oracles.add(_oracle);\r\n        ReputationRecord[_oracle] = 0;\r\n        numOracles++;\r\n    }\r\n\r\n    function removeOracle(address _oracle, string memory _reason) private {\r\n        require(oracles.has(_oracle), \"Not an oracle!\");\r\n        oracles.remove(_oracle);\r\n        delete ReputationRecord[_oracle];\r\n        numOracles--;\r\n        emit RemoveOracleEvent(_oracle, _reason);\r\n    }\r\n\r\n    function autoDestructOracle() public {\r\n        removeOracle(msg.sender, \"Sensor is self-removing from the subsystem!\");\r\n    }\r\n\r\n    function updateOracleSensorsList(uint256 _id, int256 _computedSensorValue)\r\n        private\r\n    {\r\n        int256 max = _computedSensorValue + MaxVARIATION;\r\n        int256 min = _computedSensorValue - MaxVARIATION;\r\n        for (uint256 f = 0; f < requestIdToResponse[_id].length; f++) {\r\n            address oracle = requestIdToResponse[_id][f].oracleAddress;\r\n            if (\r\n                (requestIdToResponse[_id][f].sensorValue > max) ||\r\n                (requestIdToResponse[_id][f].sensorValue < min)\r\n            ) {\r\n                ReputationRecord[oracle] = ReputationRecord[oracle] + 1;\r\n                emit VariationSurpassedEvent(\r\n                    oracle,\r\n                    _computedSensorValue,\r\n                    requestIdToResponse[_id][f].sensorValue\r\n                );\r\n            }\r\n            if (ReputationRecord[oracle] > RepTHRESHOLD) {\r\n                removeOracle(oracle, \"Sensor surpassed reputation threshold!\");\r\n            }\r\n        }\r\n    }\r\n\r\n    function setThreshold(uint256 _threshold) public {\r\n        require(oracles.has(msg.sender), \"Not an oracle, cannot set parameters!\");\r\n        THRESHOLD = _threshold;\r\n    }\r\n\r\n    function setReputationParameters(\r\n        uint256 _RepThreshold,\r\n        int256 _MaxVariation\r\n    ) public {\r\n        require(oracles.has(msg.sender), \"Not an oracle, cannot set parameters!\");\r\n        RepTHRESHOLD = _RepThreshold;\r\n        MaxVARIATION = _MaxVariation;\r\n    }\r\n\r\n    function getLatestSensorValue() public override returns (uint256) {\r\n        randNonce++;\r\n        uint256 id = uint256(\r\n            keccak256(abi.encodePacked(now, msg.sender, randNonce))\r\n        ) % modulus;\r\n        pendingRequests[id] = true;\r\n        emit GetLatestSensorValueEvent(msg.sender, id);\r\n        return id;\r\n    }\r\n\r\n    function setLatestSensorValue(\r\n        int256 _sensorValue,\r\n        address _callerAddress,\r\n        uint256 _id\r\n    ) public {\r\n        require(oracles.has(msg.sender), \"Not an oracle!\");\r\n        require(\r\n            pendingRequests[_id],\r\n            \"This request is not in my pending list.\"\r\n        );\r\n        Response memory resp;\r\n        resp = Response(msg.sender, _callerAddress, _sensorValue);\r\n        requestIdToResponse[_id].push(resp);\r\n        uint256 numResponses = requestIdToResponse[_id].length;\r\n        if (numResponses == THRESHOLD) {\r\n            int256 computedSensorValue = requestIdToResponse[_id][0]\r\n                .sensorValue;\r\n            for (uint256 f = 0; f < requestIdToResponse[_id].length; f++) {\r\n                counting[requestIdToResponse[_id][f].sensorValue] = 0;\r\n            }\r\n            //Calculating the mode\r\n            for (uint256 f = 0; f < requestIdToResponse[_id].length; f++) {\r\n                counting[requestIdToResponse[_id][f].sensorValue] =\r\n                    counting[requestIdToResponse[_id][f].sensorValue] +\r\n                    1;\r\n                if (\r\n                    counting[requestIdToResponse[_id][f].sensorValue] >\r\n                    counting[computedSensorValue]\r\n                ) {\r\n                    computedSensorValue = requestIdToResponse[_id][f]\r\n                        .sensorValue;\r\n                }\r\n            }\r\n            updateOracleSensorsList(_id, computedSensorValue);\r\n            delete pendingRequests[_id];\r\n            delete requestIdToResponse[_id];\r\n            CallerContractInterface callerContractInstance;\r\n            callerContractInstance = CallerContractInterface(_callerAddress);\r\n            callerContractInstance.callback(\r\n                computedSensorValue,\r\n                _id,\r\n                \"temperature\"\r\n            );\r\n        }\r\n    }\r\n}\r\n",
  "sourcePath": "/home/rsx02/hyperledger-besu/SubSystem Blockchain/contracts/SymmetricSensorOracle.sol",
  "compiler": {
    "name": "solc",
    "version": "0.6.3+commit.8dda9521.Emscripten.clang"
  },
  "schemaVersion": "3.4.1",
  "updatedAt": "2021-06-28T13:01:52.350Z",
  "networkType": "ethereum",
  "devdoc": {
    "methods": {}
  },
  "userdoc": {
    "methods": {}
  }
}